:100000004AC06EC0EAC26CC06BC06AC069C068C03A
:1000100067C008C265C064C063C062C061C060C020
:100020005FC05EC05DC06BC072C079C080C083C05D
:100030008AC091C0CCC061C060C095C09AC0A2C047
:100040005CC0A6C0AEC0BBC058C057C056C08EC0B2
:1000500093C09BC052C09FC0A7C0B4C0D3C0DAC079
:10006000E1C0E8C0EFC0F6C0FDC052C151C150C1EF
:1000700005C112C11CC14CC128C135C142C148C112
:1000800047C146C1F2C0FFC00CC142C118C125C161
:1000900032C19804250611241FBECFE5D4E0DEBF8F
:1000A000CDBF10E0A0E6B0E0ECE7F3E102C00590C0
:1000B0000D92A23AB107D9F711E0A2EAB0E001C06F
:1000C0001D92A233B107E1F710E0C6E9D0E003C00A
:1000D0002297FE014DD9C239D107D1F71ED14CC9A3
:1000E0008FCF0F931F9310E00AE0E82FF0E0EB3181
:1000F000F10518F4ED5EFF4F099480E06AC084E1D9
:10010000F0DF809FC0011124180F8AE0EECF85E157
:10011000E8DF809FC0011124180F8BE0E6CF86E155
:10012000E0DF809FC0011124180F8CE0DECF8091AA
:10013000A50087704EC088E1D4DF809FC0011124E4
:10014000180F8EE0D2CF89E1CCDF809FC00111244F
:10015000180F8FE0CACF8AE1C4DF809FC00111244D
:10016000180F80E1C2CF8091A2002FC08091A20021
:1001700005C08091A30029C08091A30090E0807702
:10018000907017C08091A40020C08091A40005C089
:100190008091A6001AC08091A60090E080739070B4
:1001A00008C08091A70011C08091A70090E08071E5
:1001B000907024E0959587952A95E1F70AC0809183
:1001C000A80003C08091A80082958F7002C0809122
:1001D000A900810F1F910F910895282F6AE0A6D8DA
:1001E000382F3295307F822FA1D8832F890F089521
:1001F0001F93E82FF0E0EB31F10508F089C0E25DD4
:10020000FF4F09941091A2001078862FE6DF8F77B8
:10021000812B31C01091A3001078862FDEDF8F77FD
:10022000812B37C01091A400107C862FD6DF8F73EE
:10023000812B42C067708091A500887F862B8093B8
:10024000A50066C01091A600107C862FC6DF8F73B4
:10025000812B40C01091A700107E862FBEDF8F71CA
:10026000812B46C0862FB9DF51C06295607780919F
:10027000A2008F78862B8093A2004AC06F70809175
:10028000A200807FF7CF629560778091A3008F787E
:10029000862B8093A3003CC06F708091A300807F69
:1002A000F7CF629560738091A4008F7C04C06F705B
:1002B0008091A400807F862B8093A40029C0629542
:1002C00060738091A6008F7C04C06F708091A6003F
:1002D000807F862B8093A6001BC062956071809101
:1002E000A7008F7E04C06F708091A700807F862B4F
:1002F0008093A7000DC06295607F8091A8008F70E9
:1003000004C06F708091A800807F862B8093A80026
:100310001F910895D3D778940895FCDF6091BF00B2
:100320007091C0004091C1005091C2002091C30063
:100330003091C4008091B7009091B800861797075C
:1003400009F490988417950709F4919882179307F8
:1003500009F49298009761F46115710509F0909A7B
:100360004115510509F0919A2115310509F0929A2C
:100370000196E4E080309E0711F00097F9F61092A4
:10038000B8001092B70085D549D790E0009711F4D6
:10039000D0D2C4CF019711F675D7C0CF1092AB0061
:1003A0001092AA001092AE001092AF0089B781603F
:1003B00089BF13BE1092B0001092B000089523B709
:1003C0002093AE0022B72093AF0013BE1092B0006E
:1003D0002091AA003091AB003093AD002093AC0087
:1003E0009093AB008093AA0082E08093B0000895C0
:1003F0008091AE00882321F413BE1092B0000895BE
:100400008091AC009091AD009093AB008093AA00D6
:100410008091AF0082BF8091AE0083BF81E0809366
:10042000B00008951F920F920FB60F9211242F93D0
:100430003F934F935F936F937F938F939F93AF936C
:10044000BF93EF93FF93F89413BE1092B000809186
:10045000AA009091AB00892B29F0E091AA00F091BD
:10046000AB0009957894FF91EF91BF91AF919F9167
:100470008F917F916F915F914F913F912F910F904D
:100480000FBE0F901F90189595B38F70907F892B9A
:1004900085BBC19A85E08A95F1F7C198089595B317
:1004A000282F22952F70907F292B25BBC19A25E0FC
:1004B000922F9A95F1F7C19895B38F70907F982BF2
:1004C00095BBC19A2A95F1F7C1980895C098DCDFD1
:1004D0008AE68A95F1F70895C098E1DF8AE68A9561
:1004E000F1F70895C09ADBDF8AE68A95F1F708955F
:1004F0000F931F93CF93DF93EC01C09A10E00AE6AD
:1005000005C0CDDF802F8A95F1F71F5FFE01E10F57
:10051000F11D80818823A9F7DF91CF911F910F9161
:100520000895C09881E0BBDF80ED9CE00197F1F772
:10053000089580E883BD85B5886485BD85B58062F2
:1005400085BD85B5836085BD089587B38B6087BB06
:1005500084B38F6084BBEDDF80E991E028EC30E06C
:10056000F9013197F1F70197D9F782E0AFDF88E21F
:10057000B3DF8CE0B1DFD5DF86E0AEDF08958230F7
:1005800009F4605C862F8068A7DF08958A3010F434
:10059000805D01C0895CA6DF0895EF92FF920F9302
:1005A0001F937C01162F70E0CDD6062F862F90E08A
:1005B000612F70E0C7D6862FE9DF802F90E0612F92
:1005C00070E0C0D6E3DFC701612F70E0BBD6DEDF8D
:1005D0001F910F91FF90EF9008951F920F920FB609
:1005E0000F9211242F933F934F935F936F937F93B9
:1005F0008F939F93AF93BF93EF93FF93F89432B78A
:100600008091B100882341F48DEA93E0D8DE12BED8
:1006100084E083BF81E00AC08091B1008130B9F4E9
:10062000393738F012BE84E083BF80E28093B10096
:1006300082C0313548F0DCDE1092B1008091B60006
:10064000882309F06DC077C0D3DE80E8EFCF8091BA
:10065000B10085FF70C012BE84E083BF4091B1003D
:100660004F708091B10090E08071907024E095957A
:1006700087952A95E1F7383200F5E82FF0E0483009
:1006800068F4EE54FF4F208181E090E002C0880FB3
:10069000991F4A95E2F78095282320C0EE54FF4F1A
:1006A000208130E0842F90E0089702C0359527958F
:1006B0008A95E2F720FD25C021C0303530F5E82FBE
:1006C000F0E0483068F4EE54FF4F208181E090E084
:1006D00002C0880F991F4A95E2F7282B208311C08A
:1006E000EE54FF4F208130E0842F90E0089702C045
:1006F000359527958A95E2F720FF03C080E880931F
:10070000B1008091B1008F5F02C072DE80E88093FB
:10071000B1008091B100803471F46ADE1092B100B2
:10072000E091B400F091B500309729F08091B200CB
:100730006091B30009957894FF91EF91BF91AF91CB
:100740009F918F917F916F915F914F913F912F91E9
:100750000F900FBE0F901F9018954ADE1092B100B7
:1007600008959093B5008093B4006093B60016DEB0
:100770008CE085BF8BB780688BBF1092B100089565
:1007800082B3887F82BB08958FEB90E008950F932A
:100790001F93DF93CF93CDB7DEB762970FB6F89470
:1007A000DEBF0FBECDBF4091B9005091BA0080911D
:1007B000C500282F30E0869590E0DA01082E02C0AF
:1007C000B695A7950A94E2F789010170107020FF91
:1007D0000AC00296082E02C0569547950A94E2F781
:1007E0000297A41BB50B4091BB005091BC00FA01CD
:1007F000082E02C0F695E7950A94E2F70115110557
:1008000051F00296082E02C0569547950A94E2F7D9
:100810000297E41BF50B4091BD005091BE00BA0158
:10082000082E02C0769567950A94E2F7012B41F0F5
:10083000029602C0569547958A95E2F7641B750BA0
:10084000BA83A983FC83EB837E836D83DE011D96CF
:10085000FE01319686E001900D928150E1F7DE01B4
:100860001796FE013D9686E001900D928150E1F7CA
:10087000AFEBB0E0FE01379686E001900D9281501B
:10088000E1F762960FB6F894DEBF0FBECDBFCF91F1
:10089000DF911F910F9108958091C5008E3021F056
:1008A0008F5F8093C50073DF08958091C500882312
:1008B00021F081508093C5006ADF08958093C500C0
:1008C00066DF0895A9EBB0E0FC0186E001900D928F
:1008D0008150E1F75CDF0895DF93CF9300D000D023
:1008E00000D0CDB7DEB78CEF93E09A8389839C83E9
:1008F0008B839E838D83A9EBB0E0FE01319686E069
:1009000001900D928150E1F784E08093C500109230
:10091000B8001092B7003BDF81B3876081BB269699
:100920000FB6F894DEBF0FBECDBFCF91DF91089513
:100930000895969A84EA86BF06B607FEFDCF80ED3D
:1009400083B984E886BF06B607FEFDCF13B884E8F6
:1009500086BF06B607FEFDCF84EA86BF06B607FE51
:10096000FDCF81ED83B984E886BF06B607FEFDCFD3
:10097000E2EAF0E094EC96BF06B607FEFDCF83B145
:10098000819380E0E93AF807B1F784E886BF06B6BC
:1009900007FEFDCF83B18093A90084E986BF9698B6
:1009A0000895882311F46093C6000895DF93CF93D0
:1009B000CDB7DEB72C970FB6F894DEBF0FBECDBF14
:1009C0008091C600853109F497C0863140F58D309D
:1009D00009F460C08E3080F4843009F4C9C08530D9
:1009E00020F4882309F413C127C18A3009F4CAC04E
:1009F0008C3009F021C117C1813109F473C08231F3
:100A000038F48E3009F4D2C08F3009F015C1ECC033
:100A1000823109F485C0843109F00EC1DBC08C310C
:100A200009F4CEC08D3198F4893109F447C08A3178
:100A300038F4863109F47EC0873109F0FDC066C004
:100A40008A3109F4EAC08B3109F0F6C041C0803424
:100A500009F47AC0813438F48E3109F49DC08F31A5
:100A600009F0EAC007C08C3409F478C08D3409F06D
:100A7000E3C0C4C01A8219821C821B821E821D829E
:100A8000A7ECB0E0FE01319686E001900D92815016
:100A9000E1F711C08CEF93E098878F839A8789875D
:100AA0009C878B87A7ECB0E0FE01379686E001902B
:100AB0000D928150E1F71092CE00BEC0A7ECB0E0DD
:100AC000E2EDF0E086E001900D928150E1F7B4C0D4
:100AD000A7ECB0E0E8EDF0E086E001900D928150E7
:100AE000E1F7AAC0A7ECB0E0EEEDF0E086E00190FF
:100AF0000D928150E1F7A0C0A7ECB0E0E4EEF0E089
:100B000086E001900D928150E1F796C0A7ECB0E02D
:100B1000EAEEF0E086E001900D928150E1F78CC0A2
:100B2000A7ECB0E0E0EFF0E086E001900D9281509C
:100B3000E1F782C0A7ECB0E0E6EFF0E086E00190DC
:100B40000D928150E1F778C0A7ECB0E0ECEFF0E057
:100B500086E001900D928150E1F76EC0A7ECB0E005
:100B6000E2E0F1E086E001900D928150E1F764C08F
:100B7000A7ECB0E0E8E0F1E086E001900D92815052
:100B8000E1F75AC0A7ECB0E0EEE0F1E086E00190BA
:100B90000D928150E1F750C0A7ECB0E0E4E1F1E044
:100BA00086E001900D928150E1F746C0A7ECB0E0DD
:100BB000EAE1F1E086E001900D928150E1F73CC05E
:100BC000A7ECB0E0E0E2F1E086E001900D92815008
:100BD000E1F732C0A7ECB0E0E6E2F1E086E0019098
:100BE0000D928150E1F728C0A7ECB0E0ECE2F1E013
:100BF00086E001900D928150E1F71EC090E0809157
:100C0000CE00813009F091E09093CE0015C0809124
:100C1000CE00823061F082E00DC08091CE00833042
:100C200031F083E007C08091CE00843011F480E081
:100C300001C084E08093CE002C960FB6F894DEBFFE
:100C40000FBECDBFCF91DF9108950F931F93E2EDBB
:100C5000F0E08CEF93E09093D3008093D200109259
:100C6000D5001092D4001092D7001092D600DF0168
:100C700016961092D9001092D80013969C938E93DA
:100C8000129715961C921E921497DF011C961092D3
:100C9000DF001092DE0013961C921E92129715969A
:100CA0009C938E931497DF0152969093E500809366
:100CB000E4000CEF11E013961C930E931297159617
:100CC0001C930E931497DF0158969093EB0080933A
:100CD000EA002CE230E013963C932E93129715967F
:100CE0001C921E921497DF015E961092F1001092F2
:100CF000F0006CEF72E013967C936E93129715964A
:100D00003C932E931497DF0194964CEF50E0509350
:100D1000F7004093F60013961C921E9212971596B8
:100D20009C938E931497DF019A969093FD00809385
:100D3000FC002CE730E013963C932E931297159607
:100D40001C921E921497DF01D0961092030110920C
:100D5000020113967C936E93129715963C932E93F3
:100D60001497DF01D696109309010093080113969A
:100D70001C921E92129715969C938E931497FC9634
:100D800090930F0180930E01538342831582148246
:100D9000DF0116961782168213967C936E93129734
:100DA00015965C934E931497DF011C9675876487A4
:100DB00013961C921E92129715969C938E931497DD
:100DC000DF015296938B828B13961C930E9312978E
:100DD00015961C921E921497DF015896118E108E54
:100DE00013969C938E93129715967C936E931497FB
:100DF000DF015E96978F868F13961C921E92129734
:100E000015961C930E9314971F910F9108950F93AD
:100E10001F93BADC8C0181E060E0B1DB80E690E0FA
:100E200067DBF8018081918160E1B7DB8EE25ADBFC
:100E3000F8018281938160E1B0DB8EE253DBF8013F
:100E40008481958160E1A9DB82E060E098DB80919C
:100E5000CE00823091F0833028F4882341F0813035
:100E6000A9F408C0833061F0843081F40CC085E6B9
:100E700090E00BC08CE690E008C083E790E005C0EE
:100E80008AE790E002C081E890E032DB1F910F9189
:100E900008958091C6008F3F79F172DC8091C60081
:100EA000893061F48091CE00882311F4FEDC20C0EB
:100EB0008091CF008730E1F08F5F0FC08091C60036
:100EC0008D3171F48091CE00882311F4E5DC10C0DF
:100ED0008091CF00882361F081508093CF0008C0BB
:100EE0008091CD00807F09F461DD87EC90E0EADC41
:100EF0008EDF8FEF8093C6000895AF92BF92CF929E
:100F0000DF92EF92FF920F931F93DF93CF93CDB7B2
:100F1000DEB768970FB6F894DEBF0FBECDBF609105
:100F2000D0007091D100FB01EF2FFF27E695E695E9
:100F3000E695E057FF4F808190E0218130E0FC0191
:100F4000EE0FFF1FE80FF91FEE0FFF1FCF018E52AC
:100F50009F4FDC01ED90FC90EC52FF4FC080D180A0
:100F6000F901EE0FFF1FE20FF31FEE0FFF1FDF016E
:100F7000AC52BF4FAD90BC90AC18BD08DC011496CC
:100F80000D911C911597EE52FF4F44815581401BE6
:100F9000510B660F672F661F770B71956F70262FA9
:100FA00030E0808191818E199F09BC01269FC0018C
:100FB000279F900D369F900D112474E0959587958D
:100FC0007A95E1F78E0D9F1D98878F832A9DC0012A
:100FD0002B9D900D3A9D900D112464E09595879579
:100FE0006A95E1F78C0D9D1D9A878987249FC00122
:100FF000259F900D349F900D112434E09595879591
:101000003A95E1F7800F911F9C878B87DE015396FD
:10101000FE01379686E001900D928150E1F7DE01E6
:101020001D96FE01739686E001900D928150E1F7C6
:10103000DE011196FE013D9686E001900D928150F1
:10104000E1F7CE0101963EDC68960FB6F894DEBF5C
:101050000FBECDBFCF91DF911F910F91FF90EF9009
:10106000DF90CF90BF90AF9008950F931F93DF93C1
:10107000CF93CDB7DEB768970FB6F894DEBF0FBE3B
:10108000CDBF8091D0009091D100977024E0803046
:10109000920738F406E0969587950A95E1F7282F90
:1010A00009C08050944016E0969587951A95E1F70F
:1010B00020E1281B4091C7005091C800822F90E08A
:1010C000269530E0DA01022E02C0B695A7950A9463
:1010D000E2F78C010170107080FF0CC02E5F3F4F53
:1010E000022E02C0569547950A94E2F722503040EE
:1010F000A41BB50B4091C9005091CA00FA01022E01
:1011000002C0F695E7950A94E2F70115110561F022
:101110002E5F3F4F022E02C0569547950A94E2F784
:1011200022503040E41BF50B4091CB005091CC0095
:10113000BA01022E02C0769567950A94E2F7012B58
:1011400049F02E5F3F4F02C0569547952A95E2F72A
:10115000641B750BB887AF83FA87E9877C876B8739
:10116000DE015396FE01379686E001900D92815084
:10117000E1F7DE011D96FE01739686E001900D9267
:101180008150E1F7DE011196FE013D9686E0019067
:101190000D928150E1F7CE01019694DB68960FB66F
:1011A000F894DEBF0FBECDBFCF91DF911F910F919D
:1011B0000895DF93CF9300D000D000D0CDB7DEB735
:1011C0008091D0009091D1009170449718F487ECF1
:1011D00090E008C01A8219821C821B821E821D8226
:1011E000CE0101966FDB26960FB6F894DEBF0FBED8
:1011F000CDBFCF91DF9108958091D100E82FE69582
:10120000E695E695F0E0E756FF4F808126E0829F65
:10121000C00111248E529F4F55DB0895E091CF00FD
:10122000F0E0E857FF4F80812091D0003091D1004D
:10123000280F311D3093D1002093D00080E421305D
:10124000380730F0205030443093D1002093D00044
:101250008091CE00823061F0833018F4813069F4DF
:1012600005C0833039F0843041F406C0C5DF05C0C5
:10127000A0DF03C0FADE01C040DE8091D000909173
:10128000D1000895979A82E068E079D986E129D75C
:101290007DD98CE026D77AD98AE324D985E121D774
:1012A00075D98BE01ED772D98AE31CD984E119D78E
:1012B0006DD98AE016D76AD997980895DF93CF93AE
:1012C00000D000D000D0CDB7DEB783E08093C60059
:1012D0001092CD001092CE001092CF0036D981ED41
:1012E00094E060E03EDAF8DA8CEF93E09A83898349
:1012F0009C838B839E838D83A7ECB0E0FE013196A7
:1013000086E001900D928150E1F787EC90E0DADA07
:1013100080E0D4DA81B3806C81BB26960FB6F89456
:10132000DEBF0FBECDBFCF91DF910895991B79E04D
:1013300004C0991F961708F0961B881F7A95C9F765
:1013400080950895AA1BBB1B51E107C0AA1FBB1FB4
:10135000A617B70710F0A61BB70B881F991F5A9541
:10136000A9F780959095BC01CD010895EE0FFF1F60
:0C1370000590F491E02D0994F894FFCF53
:10137C0050574D3D004E4F4E45202000464C41539A
:10138C004820005354524F424500464144452020CA
:10139C0000534D4F4F54480001020305070A0E1429
:1013AC00000D010E020F010200030E0F02030D01CE
:0213BC0000002F
:00000001FF
