:1000000014C038C038C236C035C034C033C032C066
:1000100031C0ECC22FC02EC02DC02CC02BC02AC0B6
:1000200029C028C027C040003B0111241FBECFE5D6
:10003000D4E0DEBFCDBF10E0A0E6B0E0EAE1F6E03C
:1000400002C005900D92A036B107D9F710E0A0E6E6
:10005000B0E001C01D92A33DB107E1F710E0CAE294
:10006000D0E003C02297FE01D2D2C632D107D1F729
:10007000E6D0D1C2C5CF882311F4609398000895CB
:10008000E0E6F0E09FEF9093600010926100109224
:100090006200DF0113961092630011969C931197F2
:1000A00012961C92DF0116961092660011961C9211
:1000B000119712969C93DF011996909369002FE790
:1000C00011962C93119712962C93DF011C96909306
:1000D0006C0083E111968C93119712961C92DF01AC
:1000E0001F9610926F0011962C93119783E0129631
:1000F0008C93DF0152963FE33093720011961C926D
:10010000119712969C93DF015596909375008FE19D
:1001100011968C93119712961C92DF0158961092AB
:10012000780011962C9311978FE012968C93DF0133
:100130005B9620937B0011961C92119712969C93CC
:10014000DF015E9690937E0011963C931197129674
:100150001C92DF0191961092810011962C931197B9
:1001600012963C93DF0194968FEB80938400119656
:100170001C92119712969C93DF019796909387009B
:100180008FE511968C93119712961C92DF019A9627
:1001900010928A0011969C93119712969C93BD968B
:1001A00090938D001182228308951F931FEF109367
:1001B000980010929C0039D18BE390E060E04AD126
:1001C00010939400109393001093920094E09093F6
:1001D00090001092910081B3876081BB90939B0047
:1001E0008FE180939A0010939900A2E9B0E0E9E9C9
:1001F000F0E083E001900D928150E1F74091920090
:1002000050E074E0559547957A95E1F72091930079
:1002100030E064E0359527956A95E1F78091940088
:1002200090E054E0959587955A95E1F78093970073
:10023000209396004093950078941F910895B5DF20
:1002400030919500209196009091970080919100B7
:10025000831709F49098821709F49198891709F483
:100260009298882331F43111909A2111919A911129
:10027000929A8F5FEDCFEDE9F0E09FEF90939D00B4
:1002800010929E0010929F00DF0113961092A00022
:1002900011969C93119712961C92DF01169610925C
:1002A000A30011961C92119712969C93DF01199648
:1002B0009093A6002FE711962C93119712962C93EA
:1002C000DF011C969093A90083E111968C931197FE
:1002D00012961C92DF011F961092AC0011962C937F
:1002E000119783E012968C93DF0152963FE330938F
:1002F000AF0011961C92119712969C93DF015596B0
:100300009093B2008FE111968C93119712961C92E4
:10031000DF0158961092B50011962C9311978FE03B
:1003200012968C93DF015B962093B80011961C9275
:10033000119712969C93DF015E969093BB001196E5
:100340003C93119712961C92DF0191961092BE0079
:1003500011962C93119712963C93DF0194968FEB94
:100360008093C10011961C92119712969C93DF0105
:1003700097969093C4008FE511968C9311971296DF
:100380001C92DF019A961092C70011969C931197C8
:1003900012969C93BD969093CA0011822283089571
:1003A00095B38F70907F892B85BBC19A8AEF90E0BF
:1003B0000197F1F7C198089595B3282F22952F70D2
:1003C000907F292B25BBC19A2AEF30E0F9013197A4
:1003D000F1F7C19895B38F70907F982B95BBC19A18
:1003E000C9010197F1F7C1980895C098D9DF8DE050
:1003F0008A95F1F70895C098DFDF8DE08A95F1F7CF
:100400000895C09881E0D8DF8AE991E00197F1F77B
:10041000089580E883BD85B5886485BD85B5806213
:1004200085BD85B5836085BD089587B38B6087BB27
:1004300084B38F6084BBEDDF80E197E20197F1F731
:1004400082E0D3DF88E2D7DF8CE0D5DFDADF86E039
:10045000D2DF08959093D1008093D0006093D200B2
:1004600089B7816089BF8CE085BF8BB780688BBFFF
:100470001092CD0008951F920F920FB60F92112483
:100480002F933F934F935F936F937F938F939F939C
:10049000AF93BF93EF93FF93F89432B78091CD0061
:1004A000882329F412BE83E083BF81E00AC08091D3
:1004B000CD008130B1F43D3338F012BE83E083BF0C
:1004C00080E28093CD0080C0393248F013BE109294
:1004D000CD008091D200882309F06BC075C080E800
:1004E000F0CF8091CD0085FF6FC012BE83E083BF47
:1004F0004091CD004F708091CD0090E08071907060
:1005000024E0959587952A95E1F7343100F5E82F99
:10051000F0E0483068F4E253FF4F208181E090E042
:1005200002C0880F991F4A95E2F78095282320C0C2
:10053000E253FF4F208130E0842F90E0089702C003
:10054000359527958A95E2F720FD25C021C03832E0
:1005500030F5E82FF0E0483068F4E253FF4F208197
:1005600081E090E002C0880F991F4A95E2F7282B9E
:10057000208311C0E253FF4F208130E0842F90E0B0
:10058000089702C0359527958A95E2F720FF03C0AA
:1005900080E88093CD008091CD008F5F01C080E81E
:1005A0008093CD008091CD00803471F413BE109201
:1005B000CD00E091D000F091D100309729F08091EA
:1005C000CE006091CF0009957894FF91EF91BF9193
:1005D000AF919F918F917F916F915F914F913F91DB
:1005E0002F910F900FBE0F901F9018951F920F9292
:1005F0000FB60F921124F89413BE1092CD00789488
:100600000F900FBE0F901F901895EE0FFF1F0590D3
:0A061000F491E02D0994F894FFCF57
:00000001FF
