:100000004BC06FC0DCC26DC06CC06BC06AC069C041
:1000100068C090C366C065C064C063C062C061C090
:1000200060C05FC05EC06CC073C07AC081C084C055
:100030008BC092C0CDC062C061C096C09BC0A3C03F
:100040005DC0A7C0AFC0BCC059C058C057C08FC0AA
:1000500094C09CC053C0A0C0A8C0B5C0D4C0DBC071
:10006000E2C0E9C0F0C0F7C0FEC053C152C151C1E7
:1000700006C113C11DC14DC129C136C143C149C10A
:1000800048C147C1F3C000C10DC143C119C126C158
:1000900033C1C90281040E0611241FBECFE5D4E08E
:1000A000DEBFCDBF10E0A0E6B0E0EEE2F4E102C0BA
:1000B00005900D92A23AB107D9F711E0A2EAB0E09B
:1000C00001C01D92AD3AB107E1F710E0C8E9D0E0F8
:1000D00003C02297FE01A5D9C239D107D1F71ED19D
:1000E000A4C98ECF0F931F9310E00AE0E82FF0E031
:1000F000EB31F10518F4ED5EFF4F099480E06AC022
:1001000084E1F0DF809FC0011124180F8AE0EECF58
:1001100085E1E8DF809FC0011124180F8BE0E6CF56
:1001200086E1E0DF809FC0011124180F8CE0DECF54
:100130008091A50087704EC088E1D4DF809FC00108
:100140001124180F8EE0D2CF89E1CCDF809FC0014F
:100150001124180F8FE0CACF8AE1C4DF809FC0014D
:100160001124180F80E1C2CF8091A2002FC080918E
:10017000A20005C08091A30029C08091A30090E057
:100180008077907017C08091A40020C08091A40057
:1001900005C08091A6001AC08091A60090E08073EF
:1001A000907008C08091A70011C08091A70090E0D6
:1001B0008071907024E0959587952A95E1F70AC0A3
:1001C0008091A80003C08091A80082958F7002C022
:1001D0008091A900810F1F910F910895282F6AE047
:1001E000C1D8382F3295307F822FBCD8832F890F0A
:1001F00008951F93E82FF0E0EB31F10508F089C076
:10020000E25DFF4F09941091A2001078862FE6DF7F
:100210008F77812B31C01091A3001078862FDEDFFD
:100220008F77812B37C01091A400107C862FD6DFEA
:100230008F73812B42C067708091A500887F862BC9
:100240008093A50066C01091A600107C862FC6DFA3
:100250008F73812B40C01091A700107E862FBEDFC8
:100260008F71812B46C0862FB9DF51C062956077B0
:100270008091A2008F78862B8093A2004AC06F7075
:100280008091A200807FF7CF629560778091A30074
:100290008F78862B8093A3003CC06F708091A30061
:1002A000807FF7CF629560738091A4008F7C04C03B
:1002B0006F708091A400807F862B8093A40029C05A
:1002C000629560738091A6008F7C04C06F708091EE
:1002D000A600807F862B8093A6001BC0629560716C
:1002E0008091A7008F7E04C06F708091A700807FEF
:1002F000862B8093A7000DC06295607F8091A80037
:100300008F7004C06F708091A800807F862B8093CF
:10031000A8001F910895CFD778940895FCDF6091CD
:100320003A0170913B0140913C0150913D01209177
:100330003E0130913F018091320190913301861747
:10034000970709F490988417950709F491988217F4
:10035000930709F49298009761F46115710509F00B
:10036000909A4115510509F0919A2115310509F02E
:10037000929A0196E4E080309E0711F00097F9F61A
:1003800010923301109232016DD545D790E000975D
:1003900011F4B8D2C4CF019711F471D7C0CF2FD0C8
:1003A000BECF95B38F70907F892B85BBC19A85E0B6
:1003B0008A95F1F7C198089595B3282F22952F704B
:1003C000907F292B25BBC19A25E0922F9A95F1F7B2
:1003D000C19895B38F70907F982B95BBC19A2A9541
:1003E000F1F7C1980895C098DCDF8AE68A95F1F7A5
:1003F0000895C098E1DF8AE68A95F1F70895809123
:100400002B0190912A01891718F0282F291B04C06D
:10041000805C282F291B80542223E1F0A92FB0E013
:10042000981731F0CD0101968F73907080932A0157
:10043000FD01EE0FFF1FE655FF4F8081813011F463
:10044000C09A01C0C098AA0FBB1FA655BF4F1196F6
:100450008C91B2DF0895C09881E0AEDF80ED9CE022
:100460000197F1F7089580E883BD85B5886485BD5F
:1004700085B5806285BD85B5836085BD089587B3E8
:100480008B6087BB84B38F6084BBEDDF80E991E034
:1004900028EC30E0F9013197F1F70197D9F782E0C4
:1004A000A2DF88E2A6DF8CE0A4DFD5DF86E0A1DF53
:1004B0000895FC01EF57FF4F408150E09A012F5FF4
:1004C0003F4F2F7330702083440F551F480F591F23
:1004D000CA0108951F93162F823009F4105C8AEA2E
:1004E00090E0E7DFFC011082106811831F910895EE
:1004F000EF92FF920F931F93CF93DF937C0110E055
:1005000001E008C08AEA90E0D4DFFC018881008322
:1005100081831F5FE701C10FD11D8881882391F777
:10052000DF91CF911F910F91FF90EF9008951F934E
:10053000182F8AEA90E0BDDFFC0181E080831183FF
:100540001F9108958A3010F4805D01C0895CEFDF4F
:100550000895EF92FF920F931F937C01162F70E086
:100560000DD7062F862F90E0612F70E007D7862FDA
:10057000E9DF802F90E0612F70E000D7E3DFC70153
:10058000612F70E0FBD6DEDF1F910F91FF90EF909F
:10059000089510922B0110922A0108959093300132
:1005A00080932F016093310189B7816089BF8CE00E
:1005B00085BF8BB780688BBF10922C0108951F9266
:1005C0000F920FB60F9211242F933F934F935F9387
:1005D0006F937F938F939F93AF93BF93EF93FF930B
:1005E000F89432B780912C01882329F412BE84E05C
:1005F00083BF81E00AC080912C018130B1F439378A
:1006000038F012BE84E083BF80E280932C0180C06A
:10061000313548F013BE10922C01809131018823AE
:1006200009F06BC075C080E8F0CF80912C0185FF88
:100630006FC012BE84E083BF40912C014F70809147
:100640002C0190E08071907024E0959587952A9513
:10065000E1F7383200F5E82FF0E0483068F4E35D68
:10066000FE4F208181E090E002C0880F991F4A95DB
:10067000E2F78095282320C0E35DFE4F208130E023
:10068000842F90E0089702C0359527958A95E2F768
:1006900020FD25C021C0303530F5E82FF0E048308E
:1006A00068F4E35DFE4F208181E090E002C0880F96
:1006B000991F4A95E2F7282B208311C0E35DFE4F76
:1006C000208130E0842F90E0089702C0359527956F
:1006D0008A95E2F720FF03C080E880932C01809187
:1006E0002C018F5F01C080E880932C0180912C0148
:1006F000803471F413BE10922C01E0912F01F0911F
:100700003001309729F080912D0160912E010995DB
:100710007894FF91EF91BF91AF919F918F917F91CD
:100720006F915F914F913F912F910F900FBE0F905E
:100730001F9018951F920F920FB60F921124F894E4
:1007400013BE10922C0178940F900FBE0F901F9043
:10075000189582B3887F82BB08958AE391E008955B
:100760000F931F93DF93CF93CDB7DEB762970FB68A
:10077000F894DEBF0FBECDBF4091340150913501DA
:1007800080914001282F30E0869590E0DA01082E14
:1007900002C0B695A7950A94E2F78901017010701E
:1007A00020FF0AC00296082E02C0569547950A946B
:1007B000E2F70297A41BB50B409136015091370127
:1007C000FA01082E02C0F695E7950A94E2F70115A2
:1007D000110551F00296082E02C0569547950A94CD
:1007E000E2F70297E41BF50B409138015091390173
:1007F000BA01082E02C0769567950A94E2F7012B9C
:1008000041F0029602C0569547958A95E2F7641B1F
:10081000750BBA83A983FC83EB837E836D83DE0132
:100820001D96FE01319686E001900D928150E1F710
:10083000DE011796FE013D9686E001900D928150F3
:10084000E1F7AAE3B1E0FE01379686E001900D9250
:100850008150E1F762960FB6F894DEBF0FBECDBFB0
:10086000CF91DF911F910F910895809140018E30BB
:1008700021F08F5F8093400173DF089580914001E4
:10088000882321F08150809340016ADF089580938E
:10089000400166DF0895A4E3B1E0FC0186E0019029
:1008A0000D928150E1F75CDF0895DF93CF9300D084
:1008B00000D000D0CDB7DEB78CEF93E09A83898368
:1008C0009C838B839E838D83A4E3B1E0FE013196EC
:1008D00086E001900D928150E1F784E08093400121
:1008E00010923301109232013BDF81B3876081BBEC
:1008F00026960FB6F894DEBF0FBECDBFCF91DF9125
:1009000008950895969A84EA86BF06B607FEFDCF3D
:1009100080ED83B984E886BF06B607FEFDCF13B825
:1009200084E886BF06B607FEFDCF84EA86BF06B61A
:1009300007FEFDCF81ED83B984E886BF06B607FECA
:10094000FDCFE2EAF0E094EC96BF06B607FEFDCFDD
:1009500083B1819380E0E93AF807B1F784E886BF74
:1009600006B607FEFDCF83B18093A90084E986BF58
:1009700096980895882311F4609341010895DF93B8
:10098000CF93CDB7DEB72C970FB6F894DEBF0FBE6E
:10099000CDBF80914101853109F497C0863140F582
:1009A0008D3009F460C08E3080F4843009F4C9C001
:1009B000853020F4882309F413C127C18A3009F453
:1009C000CAC08C3009F021C117C1813109F473C04C
:1009D000823138F48E3009F4D2C08F3009F015C15D
:1009E000ECC0823109F485C0843109F00EC1DBC04E
:1009F0008C3109F4CEC08D3198F4893109F447C0A7
:100A00008A3138F4863109F47EC0873109F0FDC09F
:100A100066C08A3109F4EAC08B3109F0F6C041C0E2
:100A2000803409F47AC0813438F48E3109F49DC0E1
:100A30008F3109F0EAC007C08C3409F478C08D34D6
:100A400009F0E3C0C4C01A8219821C821B821E8274
:100A50001D82A2E4B1E0FE01319686E001900D9284
:100A60008150E1F711C08CEF93E098878F839A87CC
:100A700089879C878B87A2E4B1E0FE01379686E0E8
:100A800001900D928150E1F710924901BEC0A2E49D
:100A9000B1E0EDE4F1E086E001900D928150E1F7E4
:100AA000B4C0A2E4B1E0E3E5F1E086E001900D928C
:100AB0008150E1F7AAC0A2E4B1E0E9E5F1E086E007
:100AC00001900D928150E1F7A0C0A2E4B1E0EFE502
:100AD000F1E086E001900D928150E1F796C0A2E42A
:100AE000B1E0E5E6F1E086E001900D928150E1F79A
:100AF0008CC0A2E4B1E0EBE6F1E086E001900D925B
:100B00008150E1F782C0A2E4B1E0E1E7F1E086E0E4
:100B100001900D928150E1F778C0A2E4B1E0E7E7DF
:100B2000F1E086E001900D928150E1F76EC0A2E401
:100B3000B1E0EDE7F1E086E001900D928150E1F740
:100B400064C0A2E4B1E0E3E8F1E086E001900D9238
:100B50008150E1F75AC0A2E4B1E0E9E8F1E086E0B3
:100B600001900D928150E1F750C0A2E4B1E0EFE8AE
:100B7000F1E086E001900D928150E1F746C0A2E4D9
:100B8000B1E0E5E9F1E086E001900D928150E1F7F6
:100B90003CC0A2E4B1E0EBE9F1E086E001900D9207
:100BA0008150E1F732C0A2E4B1E0E1EAF1E086E091
:100BB00001900D928150E1F728C0A2E4B1E0E7EA8C
:100BC000F1E086E001900D928150E1F71EC090E0C7
:100BD00080914901813009F091E09093490115C05D
:100BE00080914901823061F082E00DC0809149011D
:100BF000833031F083E007C080914901843011F4E3
:100C000080E001C084E0809349012C960FB6F894EF
:100C1000DEBF0FBECDBFCF91DF9108950F931F931D
:100C2000EDE4F1E08CEF93E090934E0180934D0161
:100C30001092500110924F011092520110925101E6
:100C4000DF011696109254011092530113969C9353
:100C50008E93129715961C921E921497DF011C9684
:100C600010925A011092590113961C921E921297DB
:100C700015969C938E931497DF0152969093600182
:100C800080935F010CEF11E013961C930E93129763
:100C900015961C930E931497DF0158969093660156
:100CA000809365012CE230E013963C932E931297CB
:100CB00015961C921E921497DF015E9610926C019D
:100CC00010926B016CEF72E013967C936E93129707
:100CD00015963C932E931497DF0194964CEF50E0B9
:100CE000509372014093710113961C921E921297B9
:100CF00015969C938E931497DF019A9690937801A2
:100D0000809377012CE730E013963C932E93129753
:100D100015961C921E921497DF01D09610927E01B8
:100D200010927D0113967C936E93129715963C93C7
:100D30002E931497DF01D6961093840100938301BC
:100D400013961C921E92129715969C938E9314974D
:100D5000FC9690938A018093890153834283158284
:100D60001482DF0116961782168213967C936E9377
:100D7000129715965C934E931497DF011C96758716
:100D8000648713961C921E92129715969C938E93CD
:100D90001497DF015296938B828B13961C930E93BC
:100DA000129715961C921E921497DF015896118E79
:100DB000108E13969C938E93129715967C936E9338
:100DC0001497DF015E96978F868F13961C921E9262
:100DD000129715961C930E9314971F910F910895D7
:100DE0000F931F93BADC8C0181E060E073DB80E637
:100DF00090E07EDBF8018081918160E1AADB8EE2E8
:100E000096DBF8018281938160E1A3DB8EE28FDBC8
:100E1000F8018481958160E19CDB82E060E05ADB2F
:100E200080914901823091F0833028F4882341F089
:100E30008130A9F408C0833061F0843081F40CC0A3
:100E400085E690E00BC08CE690E008C083E790E078
:100E500005C08AE790E002C081E890E049DB1F917D
:100E60000F910895809141018F3F79F172DC80915B
:100E70004101893061F480914901882311F4FEDC3D
:100E800020C080914A018730E1F08F5F0FC08091D0
:100E900041018D3171F480914901882311F4E5DC21
:100EA00010C080914A01882361F0815080934A01EB
:100EB00008C080914801807F09F461DD82E491E0FF
:100EC000EADC8EDF8FEF8093410108952F923F92ED
:100ED0004F925F926F927F928F929F92AF92BF924A
:100EE000CF92DF92EF92FF920F931F93DF93CF93F6
:100EF000CDB7DEB76A970FB6F894DEBF0FBECDBF91
:100F0000E0904B01F0904C01F701EF2FFF27E695A1
:100F1000E695E695E057FF4F808190E0218130E033
:100F2000FC01EE0FFF1FE80FF91FEE0FFF1FCF01AF
:100F3000835B9E4FDC014D905C90E15BFE4F208017
:100F40003180F901EE0FFF1FE20FF31FEE0FFF1FBD
:100F5000DF01A15BBE4FAD90BC90A218B308DC01CD
:100F600014960D90BC91A02DBA8FA98FE35BFE4F14
:100F7000648075806A1A7B0A33E0F694E7943A95A8
:100F8000E1F7FF2400E010E02081318124193509C8
:100F9000442737FD4095542FC801B701C4D120E044
:100FA00031E040E050E0FED1420E531E58864F82A1
:100FB000CC24B7FCC094DC2CC801B701A601950174
:100FC000B2D120E031E040E050E0ECD1220E331EFF
:100FD0003A862986882477FC8094982CC801B7012A
:100FE000A4019301A0D120E031E040E050E0DAD14B
:100FF000898D9A8D820F931F9C878B87DE01539674
:10100000FE01379686E001900D928150E1F7DE01F6
:101010001D96FE01739686E001900D928150E1F7D6
:10102000DE011196FE013D9686E001900D92815001
:10103000E1F7CE0101962FDC6A960FB6F894DEBF79
:101040000FBECDBFCF91DF911F910F91FF90EF9019
:10105000DF90CF90BF90AF909F908F907F906F90D8
:101060005F904F903F902F9008950F931F93DF93C1
:10107000CF93CDB7DEB768970FB6F894DEBF0FBE3B
:10108000CDBF80914B0190914C01977024E080304E
:10109000920738F426E0969587952A95E1F7282F50
:1010A00009C08050944006E0969587950A95E1F72F
:1010B00020E1281B4091420150914301822F90E092
:1010C000269530E0DA01022E02C0B695A7950A9463
:1010D000E2F78C010170107080FF0CC02E5F3F4F53
:1010E000022E02C0569547950A94E2F722503040EE
:1010F000A41BB50B4091440150914501FA01022E09
:1011000002C0F695E7950A94E2F70115110561F022
:101110002E5F3F4F022E02C0569547950A94E2F784
:1011200022503040E41BF50B40914601509147019D
:10113000BA01022E02C0769567950A94E2F7012B58
:1011400049F02E5F3F4F02C0569547952A95E2F72A
:10115000641B750BB887AF83FA87E9877C876B8739
:10116000DE015396FE01379686E001900D92815084
:10117000E1F7DE011D96FE01739686E001900D9267
:101180008150E1F7DE011196FE013D9686E0019067
:101190000D928150E1F7CE0101967DDB68960FB686
:1011A000F894DEBF0FBECDBFCF91DF911F910F919D
:1011B0000895DF93CF9300D000D000D0CDB7DEB735
:1011C00080914B018A3018F482E491E008C01A82C1
:1011D00019821C821B821E821D82CE0101965BDB5E
:1011E00026960FB6F894DEBF0FBECDBFCF91DF912C
:1011F000089580914C01E82FE695E695E695F0E09C
:10120000E756FF4F808126E0829FC0011124835B57
:101210009E4F41DB0895E0914A01F0E0E857FF4F0F
:10122000808120914B0130914C01280F311D30936A
:101230004C0120934B0180E42130380730F02050DE
:10124000304430934C0120934B018091490182300E
:1012500061F0833018F4813069F405C0833039F0CF
:10126000843041F406C0C5DF05C0A3DF03C0FDDE46
:1012700001C02CDE80914B0190914C010895979A0A
:1012800082E068E027D986E12DD75CD98CE02AD7A7
:1012900059D98AE34CD985E125D754D98BE022D797
:1012A00051D98AE344D984E11DD74CD98AE01AD7B1
:1012B00049D997980895DF93CF9300D000D000D0FC
:1012C000CDB7DEB78CE080934101109248011092B7
:1012D000490110924A01D3D88AEB94E060E05ED9CC
:1012E000E4DA8CEF93E09A8389839C838B839E83DB
:1012F0008D83A2E4B1E0FE01319686E001900D926B
:101300008150E1F782E491E0C6DA80E0C0DA81B38F
:10131000806C81BB26960FB6F894DEBF0FBECDBFA2
:10132000CF91DF910895629FD001739FF001829F5A
:10133000E00DF11D649FE00DF11D929FF00D839F64
:10134000F00D749FF00D659FF00D9927729FB00D01
:10135000E11DF91F639FB00DE11DF91FBD01CF0114
:1013600011240895991B79E004C0991F961708F07D
:10137000961B881F7A95C9F780950895AA1BBB1BF9
:1013800051E107C0AA1FBB1FA617B70710F0A61B85
:10139000B70B881F991F5A95A9F780959095BC01A6
:1013A000CD01089597FB092E05260ED057FD04D0D8
:1013B00014D00AD0001C38F45095409530952195F2
:1013C0003F4F4F4F5F4F0895F6F79095809570957A
:1013D00061957F4F8F4F9F4F0895A1E21A2EAA1B50
:1013E000BB1BFD010DC0AA1FBB1FEE1FFF1FA217D5
:1013F000B307E407F50720F0A21BB30BE40BF50BD2
:10140000661F771F881F991F1A9469F7609570955A
:10141000809590959B01AC01BD01CF010895EE0F21
:0E142000FF1F0590F491E02D0994F894FFCF82
:10142E0050574D3D004E4F4E45202000464C4153E7
:10143E004820005354524F42450046414445202017
:10144E0000534D4F4F54480001020305070A0E1476
:10145E00000D010E020F010200030E0F02030D011B
:02146E0000007C
:00000001FF
