:1000000012C02CC0EEC02AC029C028C027C026C0FC
:1000100025C0A0C123C022C021C020C01FC01EC057
:100020001DC01CC01BC011241FBECFE5D4E0DEBF25
:10003000CDBF10E0A0E6B0E0EEE9F3E002C005902D
:100040000D92A236B107D9F710E0A2E6B0E001C0E8
:100050001D92A936B107E1F730D09FC1D1CF60938F
:1000600060000895809160008F3FD9F0809160001A
:10007000893021F4809162008F5F07C08091600019
:100080008D3129F48091620081508093620081E07B
:1000900060E076D08091620060E180D08FEF809345
:1000A000600088EA91E60197F1F7089554D08FE255
:1000B00090E060E085D078940895F8DFD3DFFECF3C
:1000C00095B38F70907F892B85BBC19A8AEF90E0A2
:1000D0000197F1F7C198089595B3282F22952F70B5
:1000E000907F292B25BBC19A2AEF30E0F901319787
:1000F000F1F7C19895B38F70907F982B95BBC19AFB
:10010000C9010197F1F7C1980895C098D9DF8DE032
:100110008A95F1F70895C098DFDF8DE08A95F1F7B1
:100120000895C09AD9DF8DE08A95F1F70895C098B7
:1001300081E0D2DF8AE991E00197F1F7089580E844
:1001400083BD85B5886485BD85B5806285BD85B56F
:10015000836085BD089587B38B6087BB84B38F6050
:1001600084BBEDDF80E197E20197F1F782E0CDDF1C
:1001700088E2D1DF8CE0CFDFDADF86E0CCDF0895E4
:10018000823009F4605C862F8068C5DF08958A306C
:1001900010F4805D01C0895CC4DF08950F931F9344
:1001A000182F062F90E070E0E4D0862FF0DF812F2B
:1001B00090E0602F70E0DDD0EADF1F910F9108958D
:1001C00090936400809363006093650089B78160B9
:1001D00089BF8CE085BF8BB780688BBF10926600AB
:1001E00008951F920F920FB60F9211242F933F93F1
:1001F0004F935F936F937F938F939F93AF93BF932F
:10020000EF93FF93F89432B780916600882329F426
:1002100012BE83E083BF81E017C080916600813009
:10022000B1F43D3328F012BE83E083BF80E20CC0FE
:10023000393248F013BE1092660080916500882321
:1002400009F476C06CC080E88093660071C080912C
:10025000660085FF6DC012BE83E083BF40916600DB
:100260004F708091660090E08071907024E09595C9
:1002700087952A95E1F7343100F5E82FF0E0483012
:1002800068F4E959FF4F208181E090E002C0880FB7
:10029000991F4A95E2F78095282320C0E959FF4F1E
:1002A000208130E0842F90E0089702C03595279593
:1002B0008A95E2F720FD25C021C0383230F5E82FBD
:1002C000F0E0483068F4E959FF4F208181E090E088
:1002D00002C0880F991F4A95E2F7282B208311C08E
:1002E000E959FF4F208130E0842F90E0089702C049
:1002F000359527958A95E2F720FF03C080E8809323
:100300006600809166008F5F01C080E88093660080
:1003100080916600803461F413BE10926600809173
:10032000670060916800E0916300F09164000995B6
:100330007894FF91EF91BF91AF919F918F917F91B1
:100340006F915F914F913F912F910F900FBE0F9042
:100350001F9018951F920F920FB60F921124F894C8
:1003600013BE1092660078940F900FBE0F901F90EE
:100370001895AA1BBB1B51E107C0AA1FBB1FA617DC
:10038000B70710F0A61BB70B881F991F5A95A9F73E
:0E03900080959095BC01CD010895F894FFCFA3
:02039E00FF005E
:00000001FF
