:1000000014C038C017C336C035C034C033C032C086
:1000100031C0C9C32FC02EC02DC02CC02BC02AC0D8
:1000200029C028C027C03E00620211241FBECFE5B0
:10003000D4E0DEBFCDBF10E0A0E6B0E0ECEFF7E02B
:1000400002C005900D92A837B107D9F710E0A8E7D4
:10005000B0E001C01D92A33BB107E1F710E0CAE296
:10006000D0E003C02297FE01C3D3C632D107D1F737
:10007000A8D0C2C3C5CF609376000895E8E7F0E04A
:100080009FEF909378001092790010927A00DF0130
:10009000139610927B0011969C93119712961C92C6
:1000A000DF01169610927E0011961C9211971296FF
:1000B0009C93DF011996909381002FE711962C9362
:1000C000119712962C93DF011C969093840083E184
:1000D00011968C93119712961C92DF011F96109225
:1000E000870011962C93119783E012968C93DF0171
:1000F000529680938A0011961C92119712969C93A7
:10010000DF01559690938D008FE111968C93119796
:1001100012961C92DF0158961092900011962C9323
:1001200011978FE012968C93DF015B96809393007A
:1001300011961C92119712969C93DF015E969093F4
:1001400096008FE311968C93119712961C92DF0103
:1001500091961092990011962C93119712968C9368
:10016000DF01949620939C0011961C921197129691
:100170009C93DF01979690939F008FE511968C9347
:10018000119712961C92DF019A961092A200119676
:100190009C93119712969C93BD969093A500118203
:1001A00022830895E2D18BE390E060E032D284E0D4
:1001B0008093A8001092A90081B3876081BB7894D6
:1001C0000895BF92CF92DF92EF92FF920F931F9309
:1001D000E9DFBB24BA943091A8008091AA0090E096
:1001E000032E02C0959587950A94E2F7582F8091C7
:1001F000AB0090E0032E02C0959587950A94E2F734
:10020000482F8091AC0090E0032E02C09595879511
:100210000A94E2F7982F2091A900251709F49098E5
:10022000241709F49198291709F49298222331F49C
:100230005111909A4111919A9111929A2F5F69F7F9
:10024000809176008F3F49F31092A90082B3887F96
:1002500082BB80917600853109F481C0863128F512
:100260008E3009F4D6C08F3080F4893009F44DC047
:100270008A3020F4843009F0F3C0ADC08A3009F42C
:10028000B4C08D3009F0ECC039C0813109F45DC0D3
:10029000823120F48F3009F0E3C0D9C0823109F4F3
:1002A00072C0843109F0DCC0C8C08C3109F4BBC015
:1002B0008D3160F4873109F45CC0873108F46DC07A
:1002C000893179F18B3109F0CBC035C08F3179F0AC
:1002D000803230F48D31F1F08E3109F0C1C08FC021
:1002E000803409F464C08C3409F0BAC06AC010923A
:1002F000AC001092AB001092AA00B2C0B092AC0059
:10030000B092AB00B092AA00ABC0332309F4A8C0EE
:10031000315004C0373009F4A3C03F5F3093A800C8
:100320009FC0AAEAB0E0E8E7F0E083E001900D9218
:100330008150E1F795C0AAEAB0E0EBE7F0E083E096
:1003400001900D928150E1F78BC0AAEAB0E0EEE790
:10035000F0E083E001900D928150E1F781C0AAEABC
:10036000B0E0E1E8F0E083E001900D928150E1F728
:1003700077C0AAEAB0E0E4E8F0E083E001900D92F3
:100380008150E1F76DC0AAEAB0E0E7E8F0E083E071
:1003900001900D928150E1F763C0AAEAB0E0EAE86B
:1003A000F0E083E001900D928150E1F759C0AAEA94
:1003B000B0E0EDE8F0E083E001900D928150E1F7CC
:1003C0004FC0AAEAB0E0E0E9F0E083E001900D92CE
:1003D0008150E1F745C0AAEAB0E0E3E9F0E083E04C
:1003E00001900D928150E1F73BC0AAEAB0E0E6E946
:1003F000F0E083E001900D928150E1F731C0AAEA6C
:10040000B0E0E9E9F0E083E001900D928150E1F77E
:1004100027C0AAEAB0E0ECE9F0E083E001900D9299
:100420008150E1F71DC0AAEAB0E0EFE9F0E083E017
:1004300001900D928150E1F713C0AAEAB0E0E2EA20
:10044000F0E083E001900D928150E1F709C0AAEA43
:10045000B0E0E5EAF0E083E001900D928150E1F731
:100460008091A8000091AA0010E0082E02C0159506
:1004700007950A94E2F7E090AB00FF24082E02C033
:10048000F594E7940A94E2F7C090AC00DD2402C032
:10049000D594C7948A95E2F781E060E07BD080E64E
:1004A00090E098D0802F60E183D08EE244D08E2DF2
:1004B00060E17ED08EE23FD08C2D60E179D0B092A9
:1004C000760089CE8FEF8093AA008093AB00809353
:1004D000AC00089595B38F70907F892B85BBC19A2E
:1004E0008AEF90E00197F1F7C198089595B3282F0E
:1004F00022952F70907F292B25BBC19A2AEF30E0DF
:10050000F9013197F1F7C19895B38F70907F982BCF
:1005100095BBC19AC9010197F1F7C1980895C09898
:10052000D9DF8DE08A95F1F70895C098DFDF8DE07F
:100530008A95F1F70895C09AD9DF8DE08A95F1F791
:100540000895C09881E0D2DF8AE991E00197F1F740
:10055000089580E883BD85B5886485BD85B58062D2
:1005600085BD85B5836085BD089587B38B6087BBE6
:1005700084B38F6084BBEDDF80E197E20197F1F7F0
:1005800082E0CDDF88E2D1DF8CE0CFDFDADF86E00A
:10059000CCDF0895823009F4605C862F8068C5DF67
:1005A00008958A3010F4805D01C0895CC4DF08952D
:1005B0000F931F93182F062F90E070E003D1862F22
:1005C000F0DF812F90E0602F70E0FCD0EADF1F9118
:1005D0000F910895FF920F931F93CF93DF93C09ACB
:1005E000FC0101900020E9F73197FE2EF81AEC018A
:1005F00010E00DE006C0899179DF802F8A95F1F730
:100600001F5F1F15C0F3DF91CF911F910F91FF90D6
:1006100008959093AE008093AD006093AF0089B7CA
:10062000816089BF8CE085BF8BB780688BBF1092DB
:10063000B00008951F920F920FB60F9211242F93BE
:100640003F934F935F936F937F938F939F93AF935A
:10065000BF93EF93FF93F89432B78091B000882353
:1006600029F412BE83E083BF81E017C08091B000FF
:100670008130B1F43D3328F012BE83E083BF80E2C5
:100680000CC0393248F013BE1092B0008091AF0018
:10069000882309F476C06CC080E88093B00071C0F4
:1006A0008091B00085FF6DC012BE83E083BF409192
:1006B000B0004F708091B00090E08071907024E0A5
:1006C000959587952A95E1F7343100F5E82FF0E00C
:1006D000483068F4EF54FF4F208181E090E002C081
:1006E000880F991F4A95E2F78095282320C0EF5480
:1006F000FF4F208130E0842F90E0089702C03595AD
:1007000027958A95E2F720FD25C021C0383230F5C3
:10071000E82FF0E0483068F4EF54FF4F208181E08B
:1007200090E002C0880F991F4A95E2F7282B20839A
:1007300011C0EF54FF4F208130E0842F90E00897E4
:1007400002C0359527958A95E2F720FF03C080E81F
:100750008093B0008091B0008F5F01C080E88093EB
:10076000B0008091B000803461F413BE1092B000EC
:100770008091B1006091B200E091AD00F091AE00C7
:1007800009957894FF91EF91BF91AF919F918F91CF
:100790007F916F915F914F913F912F910F900FBE7D
:1007A0000F901F9018951F920F920FB60F92112461
:1007B000F89413BE1092B00078940F900FBE0F9073
:1007C0001F901895AA1BBB1B51E107C0AA1FBB1F96
:1007D000A617B70710F0A61BB70B881F991F5A95CD
:1007E000A9F780959095BC01CD010895EE0FFF1FEC
:0C07F0000590F491E02D0994F894FFCFDF
:1007FC0050574D3D0030313233343536373839416E
:08080C004243444546001F0071
:00000001FF
