:1000000012C02CC0C3C12AC029C028C027C026C026
:1000100025C075C223C022C021C020C01FC01EC081
:100020001DC01CC01BC011241FBECFE5D4E0DEBF25
:10003000CDBF10E0A0E6B0E0E8E4F5E002C0059036
:100040000D92A038B107D9F710E0A0E8B0E001C0E8
:100050001D92A738B107E1F7E6D074C2D1CF609303
:100060007E000895EF92FF920F931F93DF93CF933B
:10007000CDB7DEB728970FB6F894DEBF0FBECDBF61
:1000800080917E008F3F09F4B6C080917E00893058
:1000900021F4809180008F5F07C080917E008D31B8
:1000A00029F480918000815080938000909180009D
:1000B00084EA86BF06B607FEFDCF81B1887F88300F
:1000C00009F078C080EA83B984E886BF06B607FEE7
:1000D000FDCF81B1887F883111F011EE6CC0892F7E
:1000E00090E043E0880F991F4A95E1F783B984E8CF
:1000F00086BF06B607FEFDCF81B1887F883211F03A
:1001000012EE59C084EA86BF06B607FEFDCF81B164
:10011000887F803111F013EE4EC081EA83B984E804
:1001200086BF06B607FEFDCF81B1887F803411F00F
:1001300014EE41C0FE013196CF015E2F492F9E0182
:10014000285F3F4F64EC0DC066BF06B607FEFDCFCB
:1001500083B1808381B1887F803511F015EE2BC08B
:100160003196852F942F8C01E217F30769F784E805
:1001700086BF06B607FEFDCF83B1808381B1887F3D
:10018000883511F016EE17C084E986BF86D081E06D
:1001900060E0ACD080E690E0C9D08091800060E162
:1001A000B3D082E060E0A2D039E0E32EF12CEC0E77
:1001B000FD1E16C010EE71D081E060E097D080E6A1
:1001C00090E0B4D08091800060E19ED082E060E059
:1001D0008DD086E690E0AAD0812F60E195D008C04E
:1001E000F80181918F0160E18FD00E151F05C1F7D5
:1001F0008FEF80937E0088EA91E60197F1F72896C9
:100200000FB6F894DEBF0FBECDBFCF91DF911F9127
:100210000F91FF90EF90089554D08FE290E060E04E
:10022000A4D078940895F8DF1DDFFECF95B38F70CA
:10023000907F892B85BBC19A8AEF90E00197F1F7F7
:10024000C198089595B3282F22952F70907F292B60
:1002500025BBC19A2AEF30E0F9013197F1F7C19837
:1002600095B38F70907F982B95BBC19AC901019768
:10027000F1F7C1980895C098D9DF8DE08A95F1F71C
:100280000895C098DFDF8DE08A95F1F70895C09A50
:10029000D9DF8DE08A95F1F70895C09881E0D2DF2B
:1002A0008AE991E00197F1F7089580E883BD85B56B
:1002B000886485BD85B5806285BD85B5836085BD53
:1002C000089587B38B6087BB84B38F6084BBEDDFF9
:1002D00080E197E20197F1F782E0CDDF88E2D1DF9C
:1002E0008CE0CFDFDADF86E0CCDF0895823009F4DE
:1002F000605C862F8068C5DF08958A3010F4805DC9
:1003000001C0895CC4DF08950F931F93182F062F37
:1003100090E070E003D1862FF0DF812F90E0602F16
:1003200070E0FCD0EADF1F910F910895FF920F93C8
:100330001F93CF93DF93C09AFC0101900020E9F74F
:100340003197FE2EF81AEC0110E00DE006C08991FD
:1003500079DF802F8A95F1F71F5F1F15C0F3DF91BA
:10036000CF911F910F91FF900895909382008093F9
:1003700081006093830089B7816089BF8CE085BF6D
:100380008BB780688BBF1092840008951F920F92E4
:100390000FB60F9211242F933F934F935F936F9358
:1003A0007F938F939F93AF93BF93EF93FF93F894B3
:1003B00032B780918400882329F412BE83E083BF82
:1003C00081E017C0809184008130B1F43D3328F082
:1003D00012BE83E083BF80E20CC0393248F013BE06
:1003E0001092840080918300882309F476C06CC049
:1003F00080E88093840071C08091840085FF6DC087
:1004000012BE83E083BF409184004F7080918400CE
:1004100090E08071907024E0959587952A95E1F79A
:10042000343100F5E82FF0E0483068F4EB57FF4F27
:10043000208181E090E002C0880F991F4A95E2F781
:100440008095282320C0EB57FF4F208130E0842F78
:1004500090E0089702C0359527958A95E2F720FD30
:1004600025C021C0383230F5E82FF0E0483068F47C
:10047000EB57FF4F208181E090E002C0880F991F69
:100480004A95E2F7282B208311C0EB57FF4F2081BC
:1004900030E0842F90E0089702C0359527958A9523
:1004A000E2F720FF03C080E88093840080918400FD
:1004B0008F5F01C080E88093840080918400803445
:1004C00061F413BE109284008091850060918600D3
:1004D000E0918100F091820009957894FF91EF916D
:1004E000BF91AF919F918F917F916F915F914F914C
:1004F0003F912F910F900FBE0F901F9018951F9254
:100500000F920FB60F921124F89413BE109284002C
:1005100078940F900FBE0F901F901895AA1BBB1BCD
:1005200051E107C0AA1FBB1FA617B70710F0A61BF3
:10053000B70B881F991F5A95A9F780959095BC0114
:08054000CD010895F894FFCFEE
:10054800504147453D004552524F5220003031320C
:100558003334353637383941424344454600FE0086
:00000001FF
