:1000000014C038C03AC136C035C034C033C032C065
:1000100031C0EEC12FC02EC02DC02CC02BC02AC0B5
:1000200029C028C027C0DF02340411241FBECFE539
:10003000D4E0DEBFCDBF10E0A0E6B0E0ECE0FFE032
:1000400002C005900D92A23AB107D9F711E0A2EAD9
:10005000B0E001C01D92A332B107E1F710E0CAE29F
:10006000D0E003C02297FE014BD7C632D107D1F7AB
:1000700005D04AC7C5CFF9D678940895FCDF6091C2
:10008000B0007091B1004091B2005091B300209146
:10009000B4003091B5008091A8009091A900861716
:1000A000970709F490988417950709F49198821797
:1000B000930709F49298009761F46115710509F0AE
:1000C000909A4115510509F0919A2115310509F0D1
:1000D000929A0196E4E080309E0719F480E090E067
:1000E00002C08823E1F69093A9008093A800E0D491
:1000F00096D6C5CF95B38F70907F892B85BBC19A5B
:1001000080ED97E00197F1F7C198089595B3282FF6
:1001100022952F70907F292B25BBC19A20ED37E0C7
:10012000F9013197F1F7C19895B38F70907F982BB3
:1001300095BBC19AC9010197F1F7C1980895C0987C
:10014000D9DF8AE68A95F1F70895C098DFDF8AE65D
:100150008A95F1F70895C09AD9DF8AE68A95F1F772
:100160000895C09881E0D2DF80ED9CE00197F1F71F
:10017000089580E883BD85B5886485BD85B58062B6
:1001800085BD85B5836085BD089587B38B6087BBCA
:1001900084B38F6084BBEDDF80E991E028EC30E030
:1001A000F9013197F1F70197D9F782E0C8DF88E2CA
:1001B000CCDF8CE0CADFD5DF86E0C7DF0895823070
:1001C00009F4605C862F8068C0DF08958A3010F4DF
:1001D000805D01C0895CBFDF0895EF92FF920F93AD
:1001E0001F937C01162F70E075D6062F862F90E0A6
:1001F000612F70E06FD6862FE9DF802F90E0612FAE
:1002000070E068D6E3DFC701612F70E063D6DEDF00
:100210001F910F91FF90EF900895FF920F931F93FE
:10022000CF93DF93C09AFC0101900020E9F731974A
:10023000FE2EF81AEC0110E00AE606C0899166DF8E
:10024000802F8A95F1F71F5F1F15C0F3DF91CF91C3
:100250001F910F91FF9008959093A6008093A500A1
:100260006093A70089B7816089BF8CE085BF8BB799
:1002700080688BBF1092A20008951F920F920FB654
:100280000F9211242F933F934F935F936F937F931C
:100290008F939F93AF93BF93EF93FF93F89432B7ED
:1002A0008091A200882329F412BE84E083BF81E0FC
:1002B0000AC08091A2008130B1F4393738F012BE03
:1002C00084E083BF80E28093A20080C0313548F093
:1002D00013BE1092A2008091A700882309F06BC082
:1002E00075C080E8F0CF8091A20085FF6FC012BE7C
:1002F00084E083BF4091A2004F708091A20090E003
:100300008071907024E0959587952A95E1F73832B1
:1003100000F5E82FF0E0483068F4ED55FF4F2081FC
:1003200081E090E002C0880F991F4A95E2F780951E
:10033000282320C0ED55FF4F208130E0842F90E02E
:10034000089702C0359527958A95E2F720FD25C0CC
:1003500021C0303530F5E82FF0E0483068F4ED5535
:10036000FF4F208181E090E002C0880F991F4A95DD
:10037000E2F7282B208311C0ED55FF4F208130E09C
:10038000842F90E0089702C0359527958A95E2F76B
:1003900020FF03C080E88093A2008091A2008F5FBD
:1003A00001C080E88093A2008091A200803471F4A3
:1003B00013BE1092A200E091A500F091A600309724
:1003C00029F08091A3006091A40009957894FF9191
:1003D000EF91BF91AF919F918F917F916F915F91BD
:1003E0004F913F912F910F900FBE0F901F90189536
:1003F0001F920F920FB60F921124F89413BE109211
:10040000A20078940F900FBE0F901F90189582B3A2
:10041000887F82BB089580EB90E008950F931F932F
:10042000DF93CF93CDB7DEB762970FB6F894DEBFF8
:100430000FBECDBF4091AA005091AB008091B60095
:10044000282F30E0869590E0DA01082E02C0B6959C
:10045000A7950A94E2F789010170107020FF0AC085
:100460000296082E02C0569547950A94E2F7029725
:10047000A41BB50B4091AC005091AD00FA01082EC1
:1004800002C0F695E7950A94E2F70115110551F0BF
:100490000296082E02C0569547950A94E2F70297F5
:1004A000E41BF50B4091AE005091AF00BA01082E4D
:1004B00002C0769567950A94E2F7012B41F0029607
:1004C00002C0569547958A95E2F7641B750BBA836F
:1004D000A983FC83EB837E836D83DE011D96FE0181
:1004E000319686E001900D928150E1F7DE0117967A
:1004F000FE013D9686E001900D928150E1F7A0EB60
:10050000B0E0FE01379686E001900D928150E1F750
:1005100062960FB6F894DEBF0FBECDBFCF91DF91CC
:100520001F910F9108958091B6008E3021F08F5F5A
:100530008093B60073DF08958091B600882321F080
:1005400081508093B6006ADF08958093B60066DF1D
:100550000895AAEAB0E0FC0186E001900D92815076
:10056000E1F75CDF0895DF93CF9300D000D000D097
:10057000CDB7DEB78CEF93E09A8389839C838B831E
:100580009E838D83AAEAB0E0FE01319686E0019059
:100590000D928150E1F784E08093B6001092A9009B
:1005A0001092A8003BDF81B3876081BB26960FB60F
:1005B000F894DEBF0FBECDBFCF91DF9108950895AF
:1005C000882311F46093B7000895DF93CF93CDB7DC
:1005D000DEB72C970FB6F894DEBF0FBECDBF80916B
:1005E000B700853109F497C0863140F58D3009F4A4
:1005F00060C08E3080F4843009F4C9C0853020F4A6
:10060000882309F413C127C18A3009F4CAC08C3089
:1006100009F021C117C1813109F473C0823138F466
:100620008E3009F4D2C08F3009F015C1ECC0823190
:1006300009F485C0843109F00EC1DBC08C3109F4A6
:10064000CEC08D3198F4893109F447C08A3138F42D
:10065000863109F47EC0873109F0FDC066C08A3159
:1006600009F4EAC08B3109F0F6C041C0803409F4C6
:100670007AC0813438F48E3109F49DC08F3109F08D
:10068000EAC007C08C3409F478C08D3409F0E3C0A7
:10069000C4C01A8219821C821B821E821D82A8EB92
:1006A000B0E0FE01319686E001900D928150E1F7B5
:1006B00011C08CEF93E098878F839A8789879C87F6
:1006C0008B87A8EBB0E0FE01379686E001900D9293
:1006D0008150E1F71092BF00BEC0A8EBB0E0E3ECA0
:1006E000F0E086E001900D928150E1F7B4C0A8EBF4
:1006F000B0E0E9ECF0E086E001900D928150E1F786
:10070000AAC0A8EBB0E0EFECF0E086E001900D921B
:100710008150E1F7A0C0A8EBB0E0E5EDF0E086E0A5
:1007200001900D928150E1F796C0A8EBB0E0EBED9F
:10073000F0E086E001900D928150E1F78CC0A8EBCB
:10074000B0E0E1EEF0E086E001900D928150E1F73B
:1007500082C0A8EBB0E0E7EEF0E086E001900D92F9
:100760008150E1F778C0A8EBB0E0EDEEF0E086E074
:1007700001900D928150E1F76EC0A8EBB0E0E3EF7D
:10078000F0E086E001900D928150E1F764C0A8EBA3
:10079000B0E0E9EFF0E086E001900D928150E1F7E2
:1007A0005AC0A8EBB0E0EFEFF0E086E001900D92C8
:1007B0008150E1F750C0A8EBB0E0E5E0F1E086E061
:1007C00001900D928150E1F746C0A8EBB0E0EBE05C
:1007D000F1E086E001900D928150E1F73CC0A8EB7A
:1007E000B0E0E1E1F1E086E001900D928150E1F7A7
:1007F00032C0A8EBB0E0E7E1F1E086E001900D92B5
:100800008150E1F728C0A8EBB0E0EDE1F1E086E02F
:1008100001900D928150E1F71EC090E08091BF00E1
:10082000813009F091E09093BF0015C08091BF0026
:10083000823061F082E00DC08091BF00833031F0E2
:1008400083E007C08091BF00843011F480E001C0D4
:1008500084E08093BF002C960FB6F894DEBF0FBEE5
:10086000CDBFCF91DF9108950F931F93E3ECF0E09C
:100870008CEF93E09093C4008093C3001092C60065
:100880001092C5001092C8001092C700DF011696A2
:100890001092CA001092C90013969C938E931297DF
:1008A00015961C921E921497DF011C961092D00090
:1008B0001092CF0013961C921E92129715969C933D
:1008C0008E931497DF0152969093D6008093D500B3
:1008D0000CEF11E013961C930E93129715961C9330
:1008E0000E931497DF0158969093DC008093DB0001
:1008F0002CE230E013963C932E93129715961C929F
:100900001E921497DF015E961092E2001092E100B1
:100910006CEF72E013967C936E93129715963C934E
:100920002E931497DF0194964CEF50E05093E8001B
:100930004093E70013961C921E92129715969C9373
:100940008E931497DF019A969093EE008093ED00BA
:100950002CE730E013963C932E93129715961C9239
:100960001E921497DF01D0961092F4001092F300BB
:1009700013967C936E93129715963C932E9314972F
:10098000DF01D6961093FA000093F90013961C929B
:100990001E92129715969C938E931497FC969093A3
:1009A00000018093FF005383428315821482DF018C
:1009B00016961782168213967C936E93129715964D
:1009C0005C934E931497DF011C967587648713968A
:1009D0001C921E92129715969C938E931497DF018A
:1009E0005296938B828B13961C930E9312971596A7
:1009F0001C921E921497DF015896118E108E13963A
:100A00009C938E93129715967C936E931497DF01A7
:100A10005E96978F868F13961C921E92129715964C
:100A20001C930E9314971F910F9108950F931F938A
:100A3000F2DC8C0181E060E0C2DB80E690E0EDDB7F
:100A4000F8018081918160E1C8DB8EE284DBF801EE
:100A50008281938160E1C1DB8EE27DDBF8018481DC
:100A6000958160E1BADB82E060E0A9DB8091BF00A4
:100A7000823091F0833028F4882341F08130A9F44A
:100A800008C0833061F0843081F40CC085E690E0CA
:100A90000BC08CE690E008C083E790E005C08AE7D1
:100AA00090E002C081E890E0B8DB1F910F910895BB
:100AB0008091B7008F3F79F1AADC8091B70089302F
:100AC00061F48091BF00882311F436DD20C080914D
:100AD000C0008730E1F08F5F0FC08091B7008D318B
:100AE00071F48091BF00882311F41DDD10C0809146
:100AF000C000882361F081508093C00008C08091BD
:100B0000BE00807F09F461DD88EB90E022DD8EDF9E
:100B10008FEF8093B7000895AF92BF92CF92DF928C
:100B2000EF92FF920F931F93DF93CF93CDB7DEB772
:100B300068970FB6F894DEBF0FBECDBF0091C1001D
:100B40001091C200F801EF2FFF27E295E695E770BC
:100B5000E057FF4F808190E0218130E0FC01EE0FF3
:100B6000FF1FE80FF91FEE0FFF1FCF018D539F4F9F
:100B7000DC01ED90FC90EB53FF4FC080D180F90178
:100B8000EE0FFF1FE20FF31FEE0FFF1FDF01AB534E
:100B9000BF4F6D917C916C197D09DC011496AD906D
:100BA000BC901597ED53FF4F448155814A195B095D
:100BB0001F71212F269530E0808191818E199F0928
:100BC000FC012E9FC0012F9F900D3E9F900D112480
:100BD000E4E095958795EA95E1F78E0D9F1D98873E
:100BE0008F83269FC001279F900D369F900D112463
:100BF00064E0959587956A95E1F78C0D9D1D9A8720
:100C00008987249FC001259F900D349F900D11244A
:100C100024E0959587952A95E1F78A0D9B1D9C8781
:100C20008B87DE015396FE01379686E001900D9288
:100C30008150E1F7DE011D96FE01739686E001907A
:100C40000D928150E1F7DE011196FE013D9686E09E
:100C500001900D928150E1F7CE0101967ADC689601
:100C60000FB6F894DEBF0FBECDBFCF91DF911F91BD
:100C70000F91FF90EF90DF90CF90BF90AF900895CD
:100C80000F931F93DF93CF93CDB7DEB768970FB65F
:100C9000F894DEBF0FBECDBF8091C1009091C2001D
:100CA0009F7120E18030920710F4292F04C08050FA
:100CB000904120E1291B4091B8005091B900822F4A
:100CC00090E0269530E0DA01022E02C0B695A79595
:100CD0000A94E2F78C010170107080FF0CC02E5F47
:100CE0003F4F022E02C0569547950A94E2F72250D4
:100CF0003040A41BB50B4091BA005091BB00FA01E3
:100D0000022E02C0F695E7950A94E2F70115110547
:100D100061F02E5F3F4F022E02C0569547950A9410
:100D2000E2F722503040E41BF50B4091BC0050919B
:100D3000BD00BA01022E02C0769567950A94E2F7CB
:100D4000012B49F02E5F3F4F02C0569547952A95DB
:100D5000E2F7641B750BB887AF83FA87E9877C8756
:100D60006B87DE015396FE01379686E001900D9267
:100D70008150E1F7DE011D96FE01739686E0019039
:100D80000D928150E1F7DE011196FE013D9686E05D
:100D900001900D928150E1F7CE010196DADB689661
:100DA0000FB6F894DEBF0FBECDBFCF91DF911F917C
:100DB0000F910895DF93CF9300D000D000D0CDB72E
:100DC000DEB78091C1009091C2009170449718F4F1
:100DD00088EB90E008C01A8219821C821B821E8256
:100DE0001D82CE010196B5DB26960FB6F894DEBFC4
:100DF0000FBECDBFCF91DF9108958091C200E82F43
:100E0000E295E695E770F0E0E756FF4F808126E037
:100E1000829FC00111248D539F4F9BDB0895E09169
:100E2000C000F0E0E857FF4F20818091C100909111
:100E3000C200820F911D9093C2008093C1008091E7
:100E4000BF00823061F0833018F4813069F405C04E
:100E5000833039F0843041F406C0CFDF0895AADF33
:100E600008950EDF089558DE0895DF93CF9300D0E4
:100E700000D000D0CDB7DEB783E08093B7001092EA
:100E8000BE001092BF001092C0007FD980EE92E0A9
:100E900060E0E2D968DB8CEF93E09A8389839C83DE
:100EA0008B839E838D83A8EBB0E0FE01319686E0B4
:100EB00001900D928150E1F788EB90E04ADB80E0F1
:100EC00044DB26960FB6F894DEBF0FBECDBFCF91A0
:100ED000DF910895AA1BBB1B51E107C0AA1FBB1FCE
:100EE000A617B70710F0A61BB70B881F991F5A95B6
:100EF000A9F780959095BC01CD010895EE0FFF1FD5
:0C0F00000590F491E02D0994F894FFCFC7
:100F0C0050574D3D004E4F4E45202000464C41530E
:100F1C004820005354524F4245004641444520203E
:100F2C0000534D4F4F54480001020305070A0E149D
:100F3C00000D010E020F010200030E0F02030D0142
:020F4C000000A3
:00000001FF
