:1000000014C038C0AEC336C035C034C033C032C0EF
:1000100031C062C42FC02EC02DC02CC02BC02AC03E
:1000200029C028C027C04000670211241FBECFE5A9
:10003000D4E0DEBFCDBF10E0A0E6B0E0EEE2F9E034
:1000400002C005900D92A637B107D9F710E0A6E7D8
:10005000B0E001C01D92A23EB107E1F710E0CAE294
:10006000D0E003C02297FE015CD4C632D107D1F79D
:10007000ADD05BC4C5CF882311F46093AB00089565
:10008000E6E7F0E09FEF90937600109277001092F1
:100090007800DF0113961092790011969C931197C6
:1000A00012961C92DF01169610927C0011961C92FB
:1000B000119712969C93DF01199690937F002FE77A
:1000C00011962C93119712962C93DF011C96909306
:1000D000820083E111968C93119712961C92DF0196
:1000E0001F961092850011962C93119783E012961B
:1000F0008C93DF0152968093880011961C92119781
:1001000012969C93DF01559690938B008FE1119688
:100110008C93119712961C92DF01589610928E00C4
:1001200011962C9311978FE012968C93DF015B96BA
:100130008093910011961C92119712969C93DF0167
:100140005E96909394008FE311968C93119712967C
:100150001C92DF0191961092970011962C931197A3
:1001600012968C93DF01949620939A0011961C921C
:10017000119712969C93DF01979690939D008FE5BF
:1001800011968C93119712961C92DF019A961092F9
:10019000A00011969C93119712969C93BD969093F4
:1001A000A3001182228308958FEF8093AB0074D255
:1001B0008BE390E060E0C4D284E08093A6001092CC
:1001C000A70081B3876081BB78940895BF92CF92D6
:1001D000DF92EF92FF920F931F93E6DFBB24BA9456
:1001E0003091A6008091A80090E0032E02C0959562
:1001F00087950A94E2F7582F8091A90090E0032E8A
:1002000002C0959587950A94E2F7482F8091AA003D
:1002100090E0032E02C0959587950A94E2F7982FF7
:100220002091A700251709F49098241709F49198B4
:10023000291709F49298222331F45111909A41110F
:10024000919A9111929A2F5F69F78091AB008F3F3D
:1002500049F31092A70082B3887F82BB8091AB00E4
:10026000853109F481C0863128F58E3009F4D6C075
:100270008F3080F4893009F44DC08A3020F4843006
:1002800009F0F3C0ADC08A3009F4B4C08D3009F074
:10029000ECC039C0813109F45DC0823120F48F3067
:1002A00009F0E3C0D9C0823109F472C0843109F089
:1002B000DCC0C8C08C3109F4BBC08D3160F487311B
:1002C00009F45CC0873108F46DC0893179F18B3154
:1002D00009F0CBC035C08F3179F0803230F48D31E8
:1002E000F1F08E3109F0C1C08FC0803409F464C0D0
:1002F0008C3409F0BAC06AC01092AA001092A9000A
:100300001092A800B2C0B092AA00B092A900B09218
:10031000A800ABC0332309F4A8C0315004C0373063
:1003200009F4A3C03F5F3093A6009FC0A8EAB0E0E5
:10033000E6E7F0E083E001900D928150E1F795C08F
:10034000A8EAB0E0E9E7F0E083E001900D92815087
:10035000E1F78BC0A8EAB0E0ECE7F0E083E00190C1
:100360000D928150E1F781C0A8EAB0E0EFE7F0E03C
:1003700083E001900D928150E1F777C0A8EAB0E0E8
:10038000E2E8F0E083E001900D928150E1F76DC06A
:10039000A8EAB0E0E5E8F0E083E001900D9281503A
:1003A000E1F763C0A8EAB0E0E8E8F0E083E001909C
:1003B0000D928150E1F759C0A8EAB0E0EBE8F0E017
:1003C00083E001900D928150E1F74FC0A8EAB0E0C0
:1003D000EEE8F0E083E001900D928150E1F745C036
:1003E000A8EAB0E0E1E9F0E083E001900D928150ED
:1003F000E1F73BC0A8EAB0E0E4E9F0E083E0019077
:100400000D928150E1F731C0A8EAB0E0E7E9F0E0F1
:1004100083E001900D928150E1F727C0A8EAB0E097
:10042000EAE9F0E083E001900D928150E1F71DC010
:10043000A8EAB0E0EDE9F0E083E001900D92815090
:10044000E1F713C0A8EAB0E0E0EAF0E083E0019051
:100450000D928150E1F709C0A8EAB0E0E3EAF0E0CC
:1004600083E001900D928150E1F78091A600009108
:10047000A80010E0082E02C0159507950A94E2F72F
:10048000E090A900FF24082E02C0F594E7940A9496
:10049000E2F7C090AA00DD2402C0D594C7948A95E3
:1004A000E2F781E060E00DD180E690E02AD1802F74
:1004B00060E115D18EE2D6D08E2D60E110D18EE2B2
:1004C000D1D08C2D60E10BD1B092AB0089CEECEA9B
:1004D000F0E09FEF9093AC001092AD001092AE0050
:1004E000DF0113961092AF0011969C93119712960C
:1004F0001C92DF0116961092B20011961C92119771
:1005000012969C93DF0119969093B5002FE71196F0
:100510002C93119712962C93DF011C969093B800A0
:1005200083E111968C93119712961C92DF011F960E
:100530001092BB0011962C93119783E012968C9326
:10054000DF0152968093BE0011961C92119712966D
:100550009C93DF0155969093C1008FE111968C9387
:10056000119712961C92DF0158961092C4001196B2
:100570002C9311978FE012968C93DF015B968093FA
:10058000C70011961C92119712969C93DF015E96FC
:100590009093CA008FE311968C93119712961C9238
:1005A000DF0191961092CD0011962C93119712961F
:1005B0008C93DF0194962093D00011961C92119792
:1005C00012969C93DF0197969093D3008FE5119636
:1005D0008C93119712961C92DF019A961092D60076
:1005E00011969C93119712969C93BD969093D90067
:1005F000118222839093A8009093A9009093AA005F
:10060000089595B38F70907F892B85BBC19A8AEF2F
:1006100090E00197F1F7C198089595B3282F22959E
:100620002F70907F292B25BBC19A2AEF30E0F9016A
:100630003197F1F7C19895B38F70907F982B95BB48
:10064000C19AC9010197F1F7C1980895C098D9DFFF
:100650008DE08A95F1F70895C098DFDF8DE08A95E7
:10066000F1F70895C09AD9DF8DE08A95F1F70895E2
:10067000C09881E0D2DF8AE991E00197F1F708950F
:1006800080E883BD85B5886485BD85B5806285BDFC
:1006900085B5836085BD089587B38B6087BB84B3C0
:1006A0008F6084BBEDDF80E197E20197F1F782E094
:1006B000CDDF88E2D1DF8CE0CFDFDADF86E0CCDF90
:1006C0000895823009F4605C862F8068C5DF089544
:1006D0008A3010F4805D01C0895CC4DF08950F93F7
:1006E0001F93182F062F90E070E005D1862FF0DFC2
:1006F000812F90E0602F70E0FED0EADF1F910F9114
:100700000895FF920F931F93CF93DF93C09AFC013C
:1007100001900020E9F73197FE2EF81AEC0110E065
:100720000DE006C0899179DF802F8A95F1F71F5F70
:100730001F15C0F3DF91CF911F910F91FF90089586
:100740009093E0008093DF006093E10089B78160BF
:1007500089BF8CE085BF8BB780688BBF1092DC00AF
:1007600008951F920F920FB60F9211242F933F936B
:100770004F935F936F937F938F939F93AF93BF93A9
:10078000EF93FF93F89432B78091DC00882329F42B
:1007900012BE83E083BF81E00AC08091DC0081301B
:1007A000B1F43D3338F012BE83E083BF80E2809322
:1007B000DC0080C0393248F013BE1092DC0080911A
:1007C000E100882309F06BC075C080E8F0CF80910C
:1007D000DC0085FF6FC012BE83E083BF4091DC0068
:1007E0004F708091DC0090E08071907024E09595CE
:1007F00087952A95E1F7343100F5E82FF0E048308D
:1008000068F4E352FF4F208181E090E002C0880F3E
:10081000991F4A95E2F78095282320C0E352FF4FA5
:10082000208130E0842F90E0089702C0359527950D
:100830008A95E2F720FD25C021C0383230F5E82F37
:10084000F0E0483068F4E352FF4F208181E090E00F
:1008500002C0880F991F4A95E2F7282B208311C008
:10086000E352FF4F208130E0842F90E0089702C0D0
:10087000359527958A95E2F720FF03C080E880939D
:10088000DC008091DC008F5F01C080E88093DC0099
:100890008091DC00803471F413BE1092DC00E09192
:1008A000DF00F091E000309729F08091DD00609149
:1008B000DE0009957894FF91EF91BF91AF919F91E0
:1008C0008F917F916F915F914F913F912F910F90F9
:1008D0000FBE0F901F9018951F920F920FB60F9298
:1008E0001124F89413BE1092DC0078940F900FBE80
:1008F0000F901F901895AA1BBB1B51E107C0AA1FA0
:10090000BB1FA617B70710F0A61BB70B881F991FB0
:100910005A95A9F780959095BC01CD010895EE0FE9
:0E092000FF1F0590F491E02D0994F894FFCF8D
:10092E0050574D3D0030313233343536373839413A
:06093E004243444546005F
:00000001FF
