:1000000014C038C0DFC336C035C034C033C032C0BE
:1000100031C093C42FC02EC02DC02CC02BC02AC00D
:1000200029C028C027C06300A00211241FBECFE54D
:10003000D4E0DEBFCDBF10E0A0E6B0E0E0E9F9E03B
:1000400002C005900D92AC37B107D9F710E0ACE7CC
:10005000B0E001C01D92AF3EB107E1F710E0CAE287
:10006000D0E003C02297FE018DD4C632D107D1F76C
:10007000F2D08CC4C5CF6091AC004091AE0050E08E
:10008000062E02C0559547950A94E2F72091AF00DD
:1000900030E0062E02C0359527950A94E2F780914C
:1000A000B00090E002C0959587956A95E2F780933D
:1000B000B3002093B2004093B1000895882311F457
:1000C0006093B4000895ECE7F0E08FEF80937C003C
:1000D00010927D0010927E00DF01139610927F0037
:1000E00011968C93119712961C92DF01169610921E
:1000F000820011961C92119712968C93DF0119962B
:10010000809385004FE711964C93119712964C936C
:10011000DF011C96809388009BE011969C931197B9
:1001200012961C92DF011F9610928B003FEB1196E6
:100130003C93119712969C93DF0152962FE32093E4
:100140008E0011961C92119712968C93DF01559692
:10015000809391009FE111969C93119712961C92A7
:10016000DF0158961092940011963C9311971296C5
:100170009C93DF015B964093970011961C92119718
:1001800012968C93DF015E9680939A0011962C93C1
:10019000119712961C92DF01919610929D00119674
:1001A0003C93119712962C93DF0194963093A00004
:1001B00011961C92119712968C93DF01979680935B
:1001C000A30011964C93119712961C92DF019A96F8
:1001D0001092A60011968C93119712963C93BD969F
:1001E0008093A900118242830895FF920F931F9379
:1001F0005FE1F52EF092B4001092B8007ED280E656
:1002000090E0B0D28EE590E060E0CBD21FEF10938B
:10021000B0001093AF001093AE0004E00093AC0068
:100220001092AD0028DF81B3876081BB0093B700D7
:10023000F092B6001093B500AEEAB0E0E5EBF0E066
:1002400083E001900D928150E1F715DF78941F91C2
:100250000F91FF900895CF92DF92EF92FF920F934C
:100260001F93C3DF70E2D72E60E1C62EEE24EA941E
:100270004091B1003091B2002091B3009091AD0057
:10028000941709F49098931709F49198921709F428
:100290009298992331F44111909A3111919A211138
:1002A000929A9F5F69F78091B4008F3F49F3109253
:1002B000AD0082B3887F82BB8091B400893039F46D
:1002C0008091AC00882309F41FC181500AC080913D
:1002D000B4008D3149F48091AC00873009F414C129
:1002E0008F5F8093AC000FC18091B800807F09F0D0
:1002F00001C18091B400853109F475C0863128F5BB
:100300008E3009F4CAC08F3080F48A3009F4B1C04D
:100310008B3020F4843009F0EDC0A1C08C3009F49A
:10032000E7C08D3009F0E6C039C0813109F451C011
:10033000823120F48F3009F0DDC0CDC0823109F464
:1003400066C0843109F0D6C0BCC08B31C1F18C319C
:1003500060F4873109F451C0873108F462C08931F3
:1003600021F18A3109F0C6C0C0C08F3181F08032DE
:1003700038F48C3109F49BC08E3109F0BBC083C0C6
:10038000803409F458C08C3409F0B4C05EC01092B7
:10039000B7001092B6001092B500ACC0E092B70062
:1003A000E092B600E092B500A5C0A5EBB0E0ECE7A6
:1003B000F0E083E001900D928150E1F79BC0A5EB46
:1003C000B0E0EFE7F0E083E001900D928150E1F7BB
:1003D00091C0A5EBB0E0E2E8F0E083E001900D927F
:1003E0008150E1F787C0A5EBB0E0E5E8F0E083E0FD
:1003F00001900D928150E1F77DC0A5EBB0E0E8E8F7
:10040000F0E083E001900D928150E1F773C0A5EB1D
:10041000B0E0EBE8F0E083E001900D928150E1F76D
:1004200069C0A5EBB0E0EEE8F0E083E001900D924A
:100430008150E1F75FC0A5EBB0E0E1E9F0E083E0D7
:1004400001900D928150E1F755C0A5EBB0E0E4E9D1
:10045000F0E083E001900D928150E1F74BC0A5EBF5
:10046000B0E0E7E9F0E083E001900D928150E1F720
:1004700041C0A5EBB0E0EAE9F0E083E001900D9225
:100480008150E1F737C0A5EBB0E0EDE9F0E083E0A3
:1004900001900D928150E1F72DC0A5EBB0E0E0EAAC
:1004A000F0E083E001900D928150E1F723C0A5EBCD
:1004B000B0E0E3EAF0E083E001900D928150E1F7D3
:1004C00019C0A5EBB0E0E6EAF0E083E001900D9200
:1004D0008150E1F70FC0A5EBB0E0E9EAF0E083E07E
:1004E00001900D928150E1F705C0D092B80002C092
:1004F000C092B800AEEAB0E0E5EBF0E083E0019036
:100500000D928150E1F7B7DD1091B1000091B2007A
:10051000F090B30081E060E005D185E690E022D163
:10052000812F60E10DD18EE2CED0802F60E108D125
:100530008EE2C9D08F2D60E103D1E092B40098CE55
:10054000E9EBF0E08FEF8093B9001092BA001092BF
:10055000BB00DF0113961092BC0011968C9311978B
:1005600012961C92DF0116961092BF0011961C92F3
:10057000119712968C93DF0119968093C2004FE772
:1005800011964C93119712964C93DF011C96809311
:10059000C5009BE011969C93119712961C92DF0167
:1005A0001F961092C8003FEB11963C93119712963C
:1005B0009C93DF0152962FE32093CB0011961C925F
:1005C000119712968C93DF0155968093CE009FE190
:1005D00011969C93119712961C92DF0158961092D7
:1005E000D10011963C93119712969C93DF015B9674
:1005F0004093D40011961C92119712968C93DF01B0
:100600005E968093D70011962C93119712961C92A8
:10061000DF0191961092DA0011963C931197129691
:100620002C93DF0194963093DD0011961C92119764
:1006300012968C93DF0197968093E00011964C936D
:10064000119712961C92DF019A961092E300119670
:100650008C93119712963C93BD968093E60011827D
:100660004283089595B38F70907F892B85BBC19A83
:100670008AEF90E00197F1F7C198089595B3282F7C
:1006800022952F70907F292B25BBC19A2AEF30E04D
:10069000F9013197F1F7C19895B38F70907F982B3E
:1006A00095BBC19AC9010197F1F7C1980895C09807
:1006B000D9DF8DE08A95F1F70895C098DFDF8DE0EE
:1006C0008A95F1F70895C09AD9DF8DE08A95F1F700
:1006D0000895C09881E0D2DF8AE991E00197F1F7AF
:1006E000089580E883BD85B5886485BD85B5806241
:1006F00085BD85B5836085BD089587B38B6087BB55
:1007000084B38F6084BBEDDF80E197E20197F1F75E
:1007100082E0CDDF88E2D1DF8CE0CFDFDADF86E078
:10072000CCDF0895823009F4605C862F8068C5DFD5
:1007300008958A3010F4805D01C0895CC4DF08959B
:100740000F931F93182F062F90E070E005D1862F8E
:10075000F0DF812F90E0602F70E0FED0EADF1F9184
:100760000F910895FF920F931F93CF93DF93C09A39
:10077000FC0101900020E9F73197FE2EF81AEC01F8
:1007800010E00DE006C0899179DF802F8A95F1F79E
:100790001F5F1F15C0F3DF91CF911F910F91FF9045
:1007A00008959093ED008093EC006093EE0089B77C
:1007B000816089BF8CE085BF8BB780688BBF10924A
:1007C000E90008951F920F920FB60F9211242F93F4
:1007D0003F934F935F936F937F938F939F93AF93C9
:1007E000BF93EF93FF93F89432B78091E900882389
:1007F00029F412BE83E083BF81E00AC08091E90042
:100800008130B1F43D3338F012BE83E083BF80E223
:100810008093E90080C0393248F013BE1092E9009D
:100820008091EE00882309F06BC075C080E8F0CF9E
:100830008091E90085FF6FC012BE83E083BF4091C5
:10084000E9004F708091E90090E08071907024E0A1
:10085000959587952A95E1F7343100F5E82FF0E07A
:10086000483068F4E651FF4F208181E090E002C0FB
:10087000880F991F4A95E2F78095282320C0E651FA
:10088000FF4F208130E0842F90E0089702C035951B
:1008900027958A95E2F720FD25C021C0383230F532
:1008A000E82FF0E0483068F4E651FF4F208181E006
:1008B00090E002C0880F991F4A95E2F7282B208309
:1008C00011C0E651FF4F208130E0842F90E008975F
:1008D00002C0359527958A95E2F720FF03C080E88E
:1008E0008093E9008091E9008F5F01C080E88093E8
:1008F000E9008091E900803471F413BE1092E900A0
:10090000E091EC00F091ED00309729F08091EA0041
:100910006091EB0009957894FF91EF91BF91AF91B1
:100920009F918F917F916F915F914F913F912F9107
:100930000F900FBE0F901F9018951F920F920FB639
:100940000F921124F89413BE1092E90078940F903E
:100950000FBE0F901F901895AA1BBB1B51E107C03B
:10096000AA1FBB1FA617B70710F0A61BB70B881F3F
:10097000991F5A95A9F780959095BC01CD010895CE
:10098000EE0FFF1F0590F491E02D0994F894FFCF2E
:10099000544553540050574D3D00303132333435B7
:0C09A000363738394142434445460000D8
:00000001FF
