:1000000014C038C0D0C436C035C034C033C032C0CC
:1000100031C084C52FC02EC02DC02CC02BC02AC01B
:1000200029C028C027C05E00890311241FBECFE568
:10003000D4E0DEBFCDBF10E0A0E6B0E0E2E7FBE039
:1000400002C005900D92AC38B107D9F710E0ACE8CA
:10005000B0E001C01D92AC3FB107E1F710E0CAE289
:10006000D0E003C02297FE017ED5C632D107D1F77A
:10007000CDD07DC5C5CF882311F46093C10008950C
:1000800090E080FD02C044E001C040E0FC01F69534
:10009000E795EE53FF4F8FE090E0042E01C0880FEC
:1000A0000A94EAF7282F20953081232301C0660F98
:1000B0004A95EAF78623282B20830895ECE8F0E0A0
:1000C0009FEF90938C0010928D0010928E00DF01B4
:1000D000139610928F0011969C93119712961C9272
:1000E000DF0116961092920011961C9211971296AB
:1000F0009C93DF011996909395002FE711962C930E
:10010000119712962C93DF011C969093980083E12F
:1001100011968C93119712961C92DF011F961092E4
:100120009B0011962C93119783E012968C93DF011C
:10013000529680939E0011961C92119712969C9352
:10014000DF0155969093A1008FE111968C93119742
:1001500012961C92DF0158961092A40011962C93CF
:1001600011978FE012968C93DF015B968093A70026
:1001700011961C92119712969C93DF015E969093B4
:10018000AA008FE311968C93119712961C92DF01AF
:1001900091961092AD0011962C93119712968C9314
:1001A000DF0194962093B00011961C92119712963D
:1001B0009C93DF0197969093B3008FE511968C93F3
:1001C000119712961C92DF019A961092B600119622
:1001D0009C93119712969C93BD969093B9001182AF
:1001E000228308958DE08093C1001092C50076D3DC
:1001F0008BE390E060E0C6D384E08093BC00109273
:10020000BD0081B3876081BB78940895AF92BF929F
:10021000CF92DF92EF92FF920F931F93E3DF60E2A2
:10022000B62E50E1A52E3091BC008091BE0090E02A
:10023000032E02C0959587950A94E2F7582F809176
:10024000BF0090E0032E02C0959587950A94E2F7CF
:10025000482F8091C00090E0032E02C095958795AD
:100260000A94E2F7982F2091BD00251709F4909881
:10027000241709F49198291709F49298222331F44C
:100280005111909A4111919A9111929A2F5F69F7A9
:100290008091C1008F3F49F31092BD0082B3887FE7
:1002A00082BB8091C100893029F4332309F4C3C192
:1002B000315008C08091C1008D3139F4373009F4D4
:1002C000BAC13F5F3093BC00B6C14091C500242F36
:1002D00030E0207F30702031310509F479C12032BF
:1002E000310509F400C1232B09F09CC18091C100A4
:1002F000853109F476C0863128F58E3009F4CBC0FB
:100300008F3080F48A3009F4B2C08B3020F484300E
:1003100009F088C1A2C08C3009F482C18D3009F087
:1003200081C139C0813109F452C0823120F48F304B
:1003300009F078C1CEC0823109F467C0843109F078
:1003400071C1BDC08B31C9F18C3160F4873109F4C2
:1003500052C0873108F463C0893129F18A3109F02C
:1003600061C155C18F3181F0803238F48C3109F48C
:100370009CC08E3109F056C184C0803409F459C044
:100380008C3409F04FC15FC01092C4001092C300BA
:100390001092C20047C18FEF8093C4008093C300C6
:1003A0008093C2003FC1A2ECB0E0ECE8F0E083E053
:1003B00001900D928150E1F735C1A2ECB0E0EFE879
:1003C000F0E083E001900D928150E1F72BC1A2ECA7
:1003D000B0E0E2E9F0E083E001900D928150E1F7B6
:1003E00021C1A2ECB0E0E5E9F0E083E001900D92DC
:1003F0008150E1F717C1A2ECB0E0E8E9F0E083E05A
:1004000001900D928150E1F70DC1A2ECB0E0EBE953
:10041000F0E083E001900D928150E1F703C1A2EC7E
:10042000B0E0EEE9F0E083E001900D928150E1F759
:10043000F9C0A2ECB0E0E1EAF0E083E001900D92B7
:100440008150E1F7EFC0A2ECB0E0E4EAF0E083E035
:1004500001900D928150E1F7E5C0A2ECB0E0E7EA2F
:10046000F0E083E001900D928150E1F7DBC0A2EC57
:10047000B0E0EAEAF0E083E001900D928150E1F70C
:10048000D1C0A2ECB0E0EDEAF0E083E001900D9283
:100490008150E1F7C7C0A2ECB0E0E0EBF0E083E010
:1004A00001900D928150E1F7BDC0A2ECB0E0E3EB0A
:1004B000F0E083E001900D928150E1F7B3C0A2EC2F
:1004C000B0E0E6EBF0E083E001900D928150E1F7BF
:1004D000A9C0A2ECB0E0E9EBF0E083E001900D925E
:1004E0008150E1F79FC0842F8F709091C1009631A9
:1004F00009F453C0973120F59F3009F460C0903162
:1005000080F49A3009F451C09B3020F4943009F003
:1005100089C049C09C3009F483C09E3009F082C074
:1005200048C09231C1F1933120F4913109F07AC081
:100530002EC0943109F441C0953109F073C020C038
:100540009C31C9F19D3170F49931E1F09A3120F478
:10055000973109F067C01DC09A3199F19B3109F0BC
:1005600061C013C09034D9F0913420F49E3109F069
:1005700059C01DC09C34A9F09D3409F053C044C03B
:1005800060E001C061E07CDD4DC062E0FCCF63E073
:10059000FACF64E0F8CF65E0F6CF66E0F4CF67E02D
:1005A000F2CF68E0F0CF69E0EECF6AE0ECCF6BE02D
:1005B000EACF6CE0E8CF6DE0E6CF6EE0E4CF6FE02D
:1005C000E2CF842F8F5F8093C500863259F51FC01C
:1005D000842F8F702091C1002A31C9F02B3128F46B
:1005E0002C30C1F02931F1F405C02B3141F02D340C
:1005F000C9F40AC090E08E539F4F7DD013C090E0A5
:100600008E539F4F7FD00EC01092C5000BC0B0928A
:10061000C50008C0842F8F5F8093C500833111F41B
:10062000A092C500AEEBB0E0E2ECF0E083E0019018
:100630000D928150E1F78091BC000091BE0010E066
:10064000082E02C0159507950A94E2F7E090BF00C6
:10065000FF24082E02C0F594E7940A94E2F7C090B4
:10066000C000DD2402C0D594C7948A95E2F781E0EA
:1006700060E049D180E690E066D1802F60E151D101
:100680008EE212D18E2D60E14CD18EE20DD18C2DF7
:1006900060E147D182E060E036D18091C5008823D7
:1006A00021F485E690E04FD122C084FF16C08DE68C
:1006B00090E049D18091C50090E08F7090708130BA
:1006C000910539F08230910531F0892B81F482E572
:1006D0000DC087E40BC082E409C085FF08C084E731
:1006E00090E031D18091C5008F708063DDD08FEFB5
:1006F0008093C10098CDFC0180818F3F11F08F5F06
:1007000080830895FC018081882311F081508083CB
:100710000895E6ECF0E09FEF9093C6001092C700BA
:100720001092C800DF0113961092C90011969C9395
:10073000119712961C92DF0116961092CC0011961A
:100740001C92119712969C93DF0119969093CF00FB
:100750002FE711962C93119712962C93DF011C967C
:100760009093D20083E111968C93119712961C926C
:10077000DF011F961092D50011962C93119783E0FC
:1007800012968C93DF0152968093D80011961C929A
:10079000119712969C93DF0155969093DB008FE1A1
:1007A00011968C93119712961C92DF015896109215
:1007B000DE0011962C9311978FE012968C93DF0137
:1007C0005B968093E10011961C92119712969C9370
:1007D000DF015E969093E4008FE311968C9311975E
:1007E00012961C92DF0191961092E70011962C93BD
:1007F000119712968C93DF0194962093EA0011963C
:100800001C92119712969C93DF0197969093ED009E
:100810008FE511968C93119712961C92DF019A9690
:100820001092F00011969C93119712969C93BD968E
:100830009093F300118222839093BE009093BF00A7
:100840009093C000089595B38F70907F892B85BBDE
:10085000C19A8AEF90E00197F1F7C198089595B396
:10086000282F22952F70907F292B25BBC19A2AEF24
:1008700030E0F9013197F1F7C19895B38F70907F0F
:10088000982B95BBC19AC9010197F1F7C1980895BA
:10089000C098D9DF8DE08A95F1F70895C098DFDF21
:1008A0008DE08A95F1F70895C09AD9DF8DE08A9599
:1008B000F1F70895C09881E0D2DF8AE991E00197CD
:1008C000F1F7089580E883BD85B5886485BD85B559
:1008D000806285BD85B5836085BD089587B38B60D3
:1008E00087BB84B38F6084BBEDDF80E197E2019723
:1008F000F1F782E0CDDF88E2D1DF8CE0CFDFDADF15
:1009000086E0CCDF0895823009F4605C862F806831
:10091000C5DF08958A3010F4805D01C0895CC4DFB2
:1009200008950F931F93182F062F90E070E005D1C4
:10093000862FF0DF812F90E0602F70E0FED0EADF9D
:100940001F910F910895FF920F931F93CF93DF9301
:10095000C09AFC0101900020E9F73197FE2EF81AA9
:10096000EC0110E00DE006C0899179DF802F8A95B7
:10097000F1F71F5F1F15C0F3DF91CF911F910F910A
:10098000FF9008959093FA008093F9006093FB0024
:1009900089B7816089BF8CE085BF8BB780688BBFCA
:1009A0001092F60008951F920F920FB60F92112425
:1009B0002F933F934F935F936F937F938F939F9367
:1009C000AF93BF93EF93FF93F89432B78091F60003
:1009D000882329F412BE83E083BF81E00AC080919E
:1009E000F6008130B1F43D3338F012BE83E083BFAE
:1009F00080E28093F60080C0393248F013BE109236
:100A0000F6008091FB00882309F06BC075C080E878
:100A1000F0CF8091F60085FF6FC012BE83E083BFE8
:100A20004091F6004F708091F60090E080719070D8
:100A300024E0959587952A95E1F7343100F5E82F64
:100A4000F0E0483068F4E950FF4F208181E090E009
:100A500002C0880F991F4A95E2F78095282320C08D
:100A6000E950FF4F208130E0842F90E0089702C0CA
:100A7000359527958A95E2F720FD25C021C03832AB
:100A800030F5E82FF0E0483068F4E950FF4F20815E
:100A900081E090E002C0880F991F4A95E2F7282B69
:100AA000208311C0E950FF4F208130E0842F90E077
:100AB000089702C0359527958A95E2F720FF03C075
:100AC00080E88093F6008091F6008F5F01C080E897
:100AD0008093F6008091F600803471F413BE10927A
:100AE000F600E091F900F091FA00309729F080913A
:100AF000F7006091F80009957894FF91EF91BF910C
:100B0000AF919F918F917F916F915F914F913F91A5
:100B10002F910F900FBE0F901F9018951F920F925C
:100B20000FB60F921124F89413BE1092F600789429
:100B30000F900FBE0F901F901895AA1BBB1B51E181
:100B400007C0AA1FBB1FA617B70710F0A61BB70B3D
:100B5000881F991F5A95A9F780959095BC01CD01E2
:100B60000895EE0FFF1F0590F491E02D0994F8947D
:020B7000FFCFB5
:100B720050574D3D004E4F524D414C200054554E62
:100B820045202000494E5055542000303132333434
:0C0B9200353637383941424344454600AF
:00000001FF
