:1000000014C038C01EC136C035C034C033C032C081
:1000100031C0D2C12FC02EC02DC02CC02BC02AC0D1
:1000200029C028C027C0B302730411241FBECFE526
:10003000D4E0DEBFCDBF10E0A0E6B0E0E6EBFBE031
:1000400002C005900D92AA36B107D9F710E0AAE6D2
:10005000B0E001C01D92AD3AB107E1F710E0CAE28D
:10006000D0E003C02297FE01A0D5C632D107D1F758
:1000700005D09FC5C5CF77D578940895FCDF309122
:100080007400209175009091760080917000831724
:1000900009F49098821709F49198891709F49298B5
:1000A000882331F43111909A2111919A9111929AE9
:1000B0008F5F69F7109270002BD5E1CFFC01808132
:1000C0008F3F11F08F5F80830895FC01808188232A
:1000D00011F081508083089595B38F70907F892BA4
:1000E00085BBC19A80ED97E00197F1F7C19808951B
:1000F00095B3282F22952F70907F292B25BBC19A6D
:1001000020ED37E0F9013197F1F7C19895B38F7081
:10011000907F982B95BBC19AC9010197F1F7C198BF
:100120000895C098D9DF8AE68A95F1F70895C098B6
:10013000DFDF8AE68A95F1F70895C09AD9DF8AE66B
:100140008A95F1F70895C09881E0D2DF80ED9CE0B8
:100150000197F1F7089580E883BD85B5886485BD72
:1001600085B5806285BD85B5836085BD089587B3FB
:100170008B6087BB84B38F6084BBEDDF80E991E047
:1001800028EC30E0F9013197F1F70197D9F782E0D7
:10019000C8DF88E2CCDF8CE0CADFD5DF86E0C7DFCE
:1001A0000895823009F4605C862F8068C0DF08956E
:1001B0008A3010F4805D01C0895CBFDF08950F9321
:1001C0001F93182F062F90E070E0D9D4862FF0DF10
:1001D000812F90E0602F70E0D2D4EADF1F910F9161
:1001E0000895FF920F931F93CF93DF93C09AFC0162
:1001F00001900020E9F73197FE2EF81AEC0110E08B
:100200000AE606C0899174DF802F8A95F1F71F5F97
:100210001F15C0F3DF91CF911F910F91FF900895AB
:1002200090936E0080936D0060936F0089B781603A
:1002300089BF8CE085BF8BB780688BBF10926A0046
:1002400008951F920F920FB60F9211242F933F9390
:100250004F935F936F937F938F939F93AF93BF93CE
:10026000EF93FF93F89432B780916A00882329F4C2
:1002700012BE84E083BF81E00AC080916A008130B1
:10028000B1F4393738F012BE84E083BF80E2809346
:100290006A0080C0313548F013BE10926A00809128
:1002A0006F00882309F06BC075C080E8F0CF8091A3
:1002B0006A0085FF6FC012BE84E083BF40916A0070
:1002C0004F7080916A0090E08071907024E0959565
:1002D00087952A95E1F7383200F5E82FF0E04830AD
:1002E00068F4E559FF4F208181E090E002C0880F5B
:1002F000991F4A95E2F78095282320C0E559FF4FC2
:10030000208130E0842F90E0089702C03595279532
:100310008A95E2F720FD25C021C0303530F5E82F61
:10032000F0E0483068F4E559FF4F208181E090E02B
:1003300002C0880F991F4A95E2F7282B208311C02D
:10034000E559FF4F208130E0842F90E0089702C0EC
:10035000359527958A95E2F720FF03C080E88093C2
:100360006A0080916A008F5F01C080E880936A0014
:1003700080916A00803471F413BE10926A00E0919B
:100380006D00F0916E00309729F080916B006091C4
:100390006C0009957894FF91EF91BF91AF919F9177
:1003A0008F917F916F915F914F913F912F910F901E
:1003B0000FBE0F901F9018951F920F920FB60F92BD
:1003C0001124F89413BE10926A0078940F900FBE17
:1003D0000F901F90189582B3887F82BB0895DF939A
:1003E000CF9300D00F92CDB7DEB7DE011196E4E7D0
:1003F000F0E083E001900D928150E1F769817A810C
:100400008B8190E00F900F900F90CF91DF91089526
:10041000DF93CF9300D000D000D0CDB7DEB71982E4
:100420001A821B82DE011496FE01319683E0019050
:100430000D928150E1F76C817D818E8190E026964E
:100440000FB6F894DEBF0FBECDBFCF91DF910895F8
:10045000DF93CF93CDB7DEB729970FB6F894DEBF01
:100460000FBECDBF609177004091720050E0062E24
:1004700002C0559547950A94E2F72091730030E049
:10048000062E02C0359527950A94E2F780917100F7
:1004900090E002C0959587956A95E2F78C834D832D
:1004A0002E83DE011796FE01349683E001900D92B3
:1004B0008150E1F7DE011196FE01379683E001904D
:1004C0000D928150E1F7A4E7B0E0FE01319683E0A0
:1004D00001900D928150E1F729960FB6F894DEBF96
:1004E0000FBECDBFCF91DF91089580917700873007
:1004F00021F08F5F80937700ABDF089580917700C4
:10050000882321F0815080937700A2DF0895A1E72E
:10051000B0E0FC0183E001900D928150E1F798DF9B
:100520000895DF93CF9300D00F92CDB7DEB78FEF52
:1005300089838A838B83A1E7B0E0FE01319683E053
:1005400001900D928150E1F784E080937700109242
:1005500070007EDF81B3876081BB0F900F900F909A
:10056000CF91DF9108950895882311F46093780066
:100570000895DF93CF9300D000D000D0CDB7DEB781
:1005800080917800853109F483C0863128F58E305A
:1005900009F4D8C08F3080F48A3009F4BFC08B30A2
:1005A00020F4843009F0FBC0AFC08C3009F4F4C0F3
:1005B0008D3009F0F4C040C0813109F45FC0823150
:1005C00020F48F3009F0EBC0DBC0823109F474C035
:1005D000843109F0E4C0CAC08B3109F445C08C31C4
:1005E00060F4873109F45EC0873108F46FC0893147
:1005F00089F18A3109F0D3C0CDC08F3181F08032CA
:1006000038F48C3109F4A8C08E3109F0C8C090C00C
:10061000803409F465C08C3409F0C1C06BC0198204
:100620001A821B82A9E7B0E0FE01319683E00190B7
:100630000D928150E1F7B3C08FEF8C838D838E8351
:10064000A9E7B0E0FE01349683E001900D9281505D
:10065000E1F7A5C0A9E7B0E0EDE7F0E083E00190A5
:100660000D928150E1F79BC0A9E7B0E0E0E8F0E02F
:1006700083E001900D928150E1F791C0A9E7B0E0CD
:10068000E3E8F0E083E001900D928150E1F787C04C
:10069000A9E7B0E0E6E8F0E083E001900D92815038
:1006A000E1F77DC0A9E7B0E0E9E8F0E083E0019080
:1006B0000D928150E1F773C0A9E7B0E0ECE8F0E0FB
:1006C00083E001900D928150E1F769C0A9E7B0E0A5
:1006D000EFE8F0E083E001900D928150E1F75FC018
:1006E000A9E7B0E0E2E9F0E083E001900D928150EB
:1006F000E1F755C0A9E7B0E0E5E9F0E083E001905B
:100700000D928150E1F74BC0A9E7B0E0E8E9F0E0D5
:1007100083E001900D928150E1F741C0A9E7B0E07C
:10072000EBE9F0E083E001900D928150E1F737C0F2
:10073000A9E7B0E0EEE9F0E083E001900D9281508E
:10074000E1F72DC0A9E7B0E0E1EAF0E083E0019035
:100750000D928150E1F723C0A9E7B0E0E4EAF0E0B0
:1007600083E001900D928150E1F719C0A9E7B0E054
:10077000E7EAF0E083E001900D928150E1F70FC0CD
:10078000A9E7B0E0EAEAF0E083E001900D92815041
:10079000E1F705C080E201C080E180937C002696ED
:1007A0000FB6F894DEBF0FBECDBFCF91DF91089595
:1007B00090E080FD02C044E001C040E0FC01F695FD
:1007C000E7958FE090E0042E01C0880F0A94EAF7C5
:1007D000E758FF4F282F20953081232301C0660F53
:1007E0004A95EAF78623282B2083089520917C00E0
:1007F000822F8F7090917800963109F44EC0973116
:1008000018F59F3009F45BC0903180F49A3009F4F8
:100810004CC09B3020F4943009F064C044C09C303C
:1008200009F453C09E3009F05DC043C0923199F184
:10083000933120F4913109F055C029C09431E9F188
:10084000953109F04FC01DC09C31A9F19D3168F46C
:100850009931C9F09A3120F4973109F043C019C099
:100860009A31B9F19B31F1F510C09034C1F0913457
:1008700018F49E31B9F51BC09C3499F09D3491F564
:1008800021C060E01DC061E01BC062E019C063E0F0
:1008900017C064E015C065E013C066E011C067E0F2
:1008A0000FC068E00DC069E00BC06AE009C06BE0F2
:1008B00007C06CE005C06DE003C06EE001C06FE0F2
:1008C00077DF089510927C00089580E180937C008A
:1008D0000895822F8F5F80937C00863219F480E226
:1008E00080937C000895EDE7F0E08FEF80937D002A
:1008F00010927E0010927F00DF011396109280000C
:1009000011968C93119712961C92DF0116961092F5
:10091000830011961C92119712968C93DF01199601
:10092000809386004FE711964C93119712964C9343
:10093000DF011C96809389009BE011969C93119790
:1009400012961C92DF011F9610928C003FEB1196BD
:100950003C93119712969C93DF0152962FE32093BC
:100960008F0011961C92119712968C93DF01559669
:10097000809392009FE111969C93119712961C927E
:10098000DF0158961092950011963C93119712969C
:100990009C93DF015B964093980011961C921197EF
:1009A00012968C93DF015E9680939B0011962C9398
:1009B000119712961C92DF01919610929E0011964B
:1009C0003C93119712962C93DF0194963093A100DB
:1009D00011961C92119712968C93DF019796809333
:1009E000A40011964C93119712961C92DF019A96CF
:1009F0001092A70011968C93119712963C93BD9676
:100A00008093AA00118242830895DF93CF93CDB7DC
:100A1000DEB729970FB6F894DEBF0FBECDBFDFDC7F
:100A20006F8378878987DE011196FE01379683E010
:100A300001900D928150E1F781E060E0B2DB80E649
:100A400090E0CFDB898160E1BADB8EE276DB8A81E0
:100A500060E1B5DB8EE271DB8B8160E1B0DBD8DC7D
:100A60006F8378878987DE011496FE01379683E0CD
:100A700001900D928150E1F782E060E092DB85E623
:100A800090E0AFDB8C8160E19ADB8EE256DB8D81FA
:100A900060E195DB8EE251DB8E8160E190DB29968F
:100AA0000FB6F894DEBF0FBECDBFCF91DF91089592
:100AB00080917C00982F9F70209178002A31D9F086
:100AC0002B3128F42C30D9F0293109F505C02B3110
:100AD00049F02D34E1F40CC0892F90E087589F4FE6
:100AE000EDDA0895892F90E087589F4FEEDA089548
:100AF00010927C00089580E280937C0008958F5FBF
:100B000080937C00833119F480E180937C00089508
:100B1000809178008F3F31F15EDC809178008930E0
:100B200011F4ECDC1BC0809178008D3111F4DDDC18
:100B300015C080917C0090E0807F9070803191059D
:100B400049F08032910521F0892B29F412DD03C090
:100B50004DDE01C0ADDF89E790E0D9DC56DF8FEFD5
:100B60008093780008958FE18093780010927C0044
:100B7000FEDA84EB92E060E053DBD3DC0895AA1B3D
:100B8000BB1B51E107C0AA1FBB1FA617B70710F078
:100B9000A61BB70B881F991F5A95A9F780959095AA
:100BA000BC01CD010895EE0FFF1F0590F491E02DDB
:060BB0000994F894FFCF48
:0A0BB60050574D3D0053434C3D00E5
:00000001FF
